:020000040800F2
:1000000098340020713E0008C9020008CB020008A5
:10001000CD020008CF020008D10200080000000055
:10002000000000000000000000000000E5010008E2
:10003000D302000800000000290200087D3C0008EF
:100040008B3E00088B3E00088B3E00088B3E00086C
:100050008B3E00088B3E00088B3E00088B3E00085C
:100060008B3E00088B3E00088B3E00088B3E00084C
:100070008B3E00088B3E00088B3E00088B3E00083C
:100080008B3E00088B3E00088B3E00088B3E00082C
:100090008B3E00088B3E00088B3E00088B3E00081C
:1000A0008B3E00088B3E00088B3E00088B3E00080C
:1000B000530B00088B3E0008430B00088B3E0008E2
:1000C0008B3E00088B3E00088B3E00088B3E0008EC
:1000D0008B3E0008053E00088B3E00088B3E000862
:1000E000873B00088B3E00088B3E000800F002F8BA
:1000F00000F068F80AA090E8000C82448344AAF15A
:100100000107DA4501D100F05DF8AFF2090EBAE857
:100110000F0013F0010F18BFFB1A43F0010318473B
:1001200010AA000030AA00000A444FF0000C10F89A
:10013000013B13F0070408BF10F8014B1D1108BF65
:1001400010F8015B641E05D010F8016B641E01F805
:10015000016BF9D113F0080F1EBF10F8014BAD1C55
:100160000C1B09D16D1E58BF01F801CBFAD505E073
:1001700014F8016B01F8016B6D1EF9D59142D6D3CD
:10018000704700000023002400250026103A28BFF5
:1001900078C1FBD8520728BF30C148BF0B607047F9
:1001A000642907F0CF86752907F0CC86632908F00B
:1001B000C880732908F0CD80002070471FB51FBD8F
:1001C00010B510BD08F064F91146FFF7F7FF00F015
:1001D00055F808F082F903B4FFF7F2FF03BC03F00F
:1001E000BBFD0000224B19680868B0E8F00F80F3EF
:1001F0000988BFF36F8F4FF0000080F311884EF035
:100200000D0E70470000000006480068006880F38B
:10021000088862B661B6BFF34F8FBFF36F8F00DF00
:1002200000BF00BF08ED00E0EFF30980BFF36F8F60
:100230000F4B1A6820E9F00F106008B54FF050001E
:1002400080F31188BFF34F8FBFF36F8F06F09AFAD8
:100250004FF0000080F31188BDE808401968086875
:10026000B0E8F00F80F30988BFF36F8F704700BFCD
:10027000F4000020EFF3058070470000104804F000
:100280008AF80F480F490068884200D0FEE74FF413
:10029000407003F00DFE03F0FBFC4FF4E13003F07F
:1002A00065FD00F0D1F801F015F800F0E6FB00F074
:1002B00061FC01F03CF800F026F906F0B1FBFEE726
:1002C0006801002000A24A047047FEE7FEE7FEE74F
:1002D000FEE770470CB50022019200925248016877
:1002E00041F4803101604FF4A063016801F40031F2
:1002F00000910199491C0191009911B90199994204
:10030000F3D10168890302D50121009100E0009238
:100310000099012930D145490A6842F010020A606B
:100320000A6822F003020A600A6842F002020A60C8
:100330004168416041684160416841F480614160C9
:10034000416821F47C114160416841F4E811416049
:10035000016841F08071016001688901FCD5416844
:1003600021F003014160416841F0020141604168B0
:10037000C1F381010229FAD10CBDABE710B52A48BF
:10038000016841F0010101604168294A1140416062
:100390000168284A11400160016821F48021016050
:1003A000416821F4FE0141604FF41F018160FFF7B5
:1003B000E4FF21494FF00060086010BD10B51A4AF3
:1003C000506800F00C011D4B1D4800290ED0042977
:1003D0000ED008290ED003605168194AC1F30311E9
:1003E000121D515C0268CA40026010BD0360F3E751
:1003F0000360F1E7516801F47011536803F480332E
:10040000022404EB914133B153689B0307D50D4B94
:1004100059430160E0E70B4B59430160DCE7074BB0
:1004200059430160D8E7000000100240002002405C
:100430000000FFF8FFFFF6FE08ED00E000127A0072
:100440003400002000093D0038B50121102003F0E0
:10045000FAFF4FF40054ADF8004010208DF803006F
:1004600003208DF80200054D6946284603F0E5FD9E
:100470002146284603F050FE38BD00000010014020
:1004800008B506F00BFB009006F008FB00900A2070
:1004900003F035FC6421684606F058F8F4E708B527
:1004A00006F0FCFA00901E4C06F0F8FA0090D4F822
:1004B000B401C043C4F8B4016421684606F046F8AC
:1004C000F2E77CB507F002FB16480324CDE90040B3
:1004D0004FF4807500232A4613A1AFF23D0005F0CA
:1004E0008EFE10482A46001DCDE90040002311A1D0
:1004F000AFF2730005F083FE002005F0C9FEBDE8F1
:100500007C4007F0FDBA1CB500200221CDE90010A7
:10051000CA0103460AA1AFF2550005F070FE1CBDEA
:1005200000002242480000204C65645F5461736BF8
:1005300000000000494D555F5461736B00000000DE
:1005400073746172745F7461736B000008B501218C
:10055000082003F078FF4FF44060ADF80000102051
:100560008DF8030003208DF802006946FE4803F071
:1005700064FD08BD70B5FC48001D016821F47041A0
:100580000160016841F440510160F84C0120C4F859
:10059000AC01D4F82C1100290BD0C4F8A80103F049
:1005A00095FB0025C4F8AC51D4F82C0118B10020FB
:1005B00070BD002070BD012003F088FBC4F8A85175
:1005C000012070BD10B5E848001D016821F470419C
:1005D0000160016841F440510160E54C0020206059
:1005E0006060012003F072FB012020606060BDE8C4
:1005F000104003F06BBB70B50024DB48001D0168A0
:1006000021F470410160016841F400410160D74D5F
:100610000126C5F8AC61012003F058FBC5F8A861BC
:10062000012003F053FB0AE0641CE4B2322C03D92E
:10063000FFF7C8FF002070BD012003F047FBD5F88D
:100640002C010028F0D1C5F8A801012070BD70B5BB
:10065000C74C00252560C448001D016821F4704185
:100660000160016841F4405101606560012003F0C0
:100670002DFB0120206003F029FB256070BD70B5C3
:10068000BB4C00252560B848001D016821F470416D
:100690000160016841F4405101600126666001205B
:1006A00003F014FB2660012003F010FB256070BDF1
:1006B0002DE9F0410546AC48001D016821F4704168
:1006C0000160016841F440510160A84E4FF00008FC
:1006D000C6F8A88100240127E809C6F8AC0168061D
:1006E000050E012003F0F2FAC6F8A871012003F00C
:1006F000EDFAC6F8A881012003F0E8FA641CE4B220
:10070000082CE9D3BDE8F0812DE9F04104460F46FD
:1007100016461D46FFF72EFF68B16006000EFFF774
:10072000C7FFFFF768FF40B13846FFF7C1FFFFF78B
:1007300062FF00240CE00120E4E7FFF743FF012003
:10074000E0E7285DFFF7B4FFFFF755FF30B1641C09
:10075000B442F6DBFFF736FF0020D3E7FFF732FFA6
:100760000020CFE72DE9F047814600247E48001D98
:10077000016821F470410160016841F400410160A9
:1007800000257A4E00274FF00108C6F8A871022014
:1007900003F09CFAC6F8A8816006040ED6F82C0176
:1007A00008B1641CE4B2022003F090FA6D1CEDB2B3
:1007B000082DEAD3B9F1000F02D0FFF748FF01E09E
:1007C000FFF75DFF2046BDE8F0872DE9F0410646C2
:1007D0000F4614461D46FFF7CDFEB0B17006000E61
:1007E000FFF766FFFFF707FF88B13846FFF760FFA6
:1007F000FFF701FFFFF7BEFE012000EB4600C0B28D
:10080000FFF756FFFFF7F7FE0EE001207AE7FFF74C
:10081000D9FE012076E7012C0CD00120FFF7A2FFC2
:1008200028706D1C641EE4B2002CF4D1FFF7CAFEE0
:10083000002067E70020FFF795FF2870F1E770B50B
:1008400004460D46FFF796FE2046FFF731FFFFF7FF
:10085000D2FE2846FFF72CFFFFF7CDFEFFF78AFEFA
:10086000641CE0B2FFF724FFFFF7C5FE0020FFF78E
:1008700079FF0446FFF7A6FE204670BD2DE9F04142
:100880000746884616461D460024FFF773FE384685
:10089000FFF70EFFFFF7AFFE4046FFF709FFFFF738
:1008A000AAFEFFF767FE7F1CF8B2FFF701FFFFF714
:1008B000A2FE771E0CE0BC4204D00120FFF752FFDD
:1008C000285503E00020FFF74DFF2855641CE4B2D3
:1008D000B442F0D3FFF776FE204613E72DE9F0414E
:1008E00080460F4616461D460024FFF743FE40464D
:1008F000FFF7DEFEFFF77FFE3846FFF7D9FEFFF772
:100900007AFE06E0285DFFF7D3FEFFF774FE641C55
:10091000E4B2B442F6D3FFF755FE0120F2E610B57B
:100920001446FFF78CFF2070012010BD07B502AB05
:100930000122FFF7D3FF0EBD2DE9F8430646DDF88F
:1009400020800F4614461D466A4639463046FFF75A
:10095000E6FF28B3611CFF20C4F1080200FA01F190
:100960002A44521ED04005E0000C01400080214284
:10097000A88121420143C8B2C5F1080108FA01F873
:1009800008F0FF03C4F10701CB409DF800200240AE
:100990001A43009239463046FFF7C8FFBDE8F88396
:1009A0000020FBE72DE9F84305460E46174698461A
:1009B0006A4631462846FFF7B2FF0124BC40B8F131
:1009C000000F04D09DF8000044EA000202E09DF808
:1009D0000020A243D2B2009231462846FFF7A6FF7C
:1009E000DCE7000010B588B00121084603F036FDB1
:1009F0000121042003F027FD0320ADF804000420AA
:100A00008DF8070001A9574803F017FB05A804F06B
:100A1000D4FA0020ADF814004FF6FF71ADF81810AD
:100A2000ADF81A00ADF816004FF0804405A9204635
:100A300004F016F800231A460321204604F07BFB3D
:100A400002A804F0CDFA0A21ADF8101002A9204640
:100A500004F034FA0121204604F01DFD0122114664
:100A6000204604F0E8FA0021204604F0EBFC0121C6
:100A7000204604F0C6FA08B010BD30B587B0012199
:100A8000082003F0E0FC0121C80203F0DCFC482050
:100A90008DF81B00C020ADF8180003208DF81A0057
:100AA00006A9314803F0C9FA0024ADF81240ADF8A8
:100AB0000E404FF6FF70ADF81000ADF80C408DF809
:100AC00014402A4D03A9284603F0CAFF684604F0E3
:100AD00087FAADF800400F24ADF808406946284673
:100AE00004F0ECF90421ADF80010ADF808406946B7
:100AF000284604F0E3F900231A460321284604F0AF
:100B00001AFB0121284604F07CFA07B030BD002111
:100B1000022805D0032809D004280CD000207047F3
:100B20004FF08042B2F9240091847047104AB2F924
:100B30000000118070470D4A2432B2F90000118084
:100B400070470A4810300188018821F001010180B6
:100B500070474FF08040018A018A21F00101018233
:100B60007047000000080140000C014000080040F0
:100B70002404004008B54FF47040ADF80000102088
:100B80008DF8030003208DF8020069462D4803F01C
:100B900054FA08BD01462C4804F05CBC70B54FF413
:100BA0000041284C4D10002804D001280AD002280A
:100BB00010D016E0204603F0B1FA2946204603F093
:100BC000ADFA0EE0204603F0A7FA2946204603F0CE
:100BD000A5FA06E0204603F0A1FA2946204603F0D4
:100BE0009BFA4FF4FA70BDE87040D3E7014616480F
:100BF00004F032BC70B54FF40051124C4D10002877
:100C000004D001280AD0022810D016E0204603F0B4
:100C100085FA2946204603F081FA0EE0204603F0CB
:100C20007BFA2946204603F079FA06E0204603F0D5
:100C300075FA2946204603F06FFA4FF4FA70BDE8C2
:100C40007040D3E7000C01400004004090F9001010
:100C5000002902DD4FF00000704702DA4FF0040077
:100C6000704790F90110002902DD4FF00100704734
:100C700002DA4FF00500704790F90200002802DD0B
:100C80004FF00200704702DA4FF0060070474FF055
:100C90000700704770B504462046FFF7D7FF0546AA
:100CA000E01CFFF7D3FF45EAC005A01DFFF7CEFF0C
:100CB00045EA801080B270BD10B588B002A905A8C1
:100CC00001F080FE072835D101A801F0A0F90598B0
:100CD00008F05CFE01990C4608F084FE08F01AFE4C
:100CE0000590069808F052FE214608F07BFE08F0B9
:100CF00011FE0690079808F049FE214608F072FEA2
:100D000008F008FE079005A802F00CF9684601F00B
:100D1000B7F9BDF80000029941430291039941439C
:100D2000039104994143049102A802F07BF9FAA0CF
:100D300007F08AF808B010BD2DE9F043DDE907C8D7
:100D40000124FE4F651E2E4637F8149027F81590A3
:100D500007EB440507EB4606B5F81690A6F8169083
:100D6000B5F82C90A6F82C90B5F84290A6F84290D1
:100D7000B5F85890A6F85890B5F86E50A6F86E5091
:100D8000641CE4B20A2CDDD378823985FA87A7F88F
:100D90005430A7F86AC0A7F880800021002037F9F6
:100DA00010201144401CC0B20A28F8D30A2291FB3B
:100DB000F2F0B8820021002007EB4003B3F91630AF
:100DC0001944401CC0B20A28F6D391FBF2F0788592
:100DD0000021002007EB4003B3F92C301944401CDC
:100DE000C0B20A28F6D391FBF2F0A7F84000002128
:100DF000002007EB4003B3F942301944401CC0B255
:100E00000A28F6D391FBF2F0A7F856000021002043
:100E100007EB4003B3F958301944401CC0B20A280C
:100E2000F6D391FBF2F0A7F86C000021002007EB4D
:100E30004003B3F96E301944401CC0B20A28F6D3FF
:100E400091FBF2F0A7F88200BDE8F08308B5032318
:100E5000009002226B21D020FFF76EFD08BD08B57F
:100E60000223009004221B21D020FFF765FD08BD5E
:100E700008B50223009004221C21D020FFF75CFD5E
:100E800008BD034606226B21D020FFF78BBD10B5AD
:100E9000AA4B01220E3B7521D020FFF7EFFCA7489B
:100EA0000E38007810BD10B5FFF7F1FF682801D0AB
:100EB000002010BD012010BD034605226A21D0206C
:100EC000FFF770BD034601223721D020FFF76ABD2E
:100ED00010B50220FFF7BAFF0320FFF7C0FF002084
:100EE000FFF7C6FF0020FFF7CCFF0020FFF7E4FF6D
:100EF000BDE810400020E5E708B5002000906B46F3
:100F0000012275216820FFF760FC8DA006F09CFF90
:100F10009DF80000682809D091480168914A01F4C1
:100F2000E06111430160BFF34F8FFEE700F000FE68
:100F3000002842D1782000F0E8FA10B98AA006F023
:100F400083FF782000F070FC10B990A006F07CFFC1
:100F5000C82000F03AFD10B994A006F075FF01F02A
:100F600057FF10B99AA006F06FFF01F051FF10B9BA
:100F700097A006F069FFA348FFF78CFE01F050FF31
:100F800010B9A1A006F060FF40F2731002F011FB4F
:100F900010B9A7A006F058FFC82002F0C5F810B994
:100FA000ADA006F051FFFFF787FE012001F0CFFC56
:100FB000002802D1B1A006F047FF08BD2DE9F04797
:100FC00088B0904E06A8283ECDE9006006F12201C7
:100FD00007AB02AA881F02F037FC3088C0057FD516
:100FE000029808F0D3FC6FF01D08414608F09BFE04
:100FF00004467060039808F0C9FC414608F093FE6F
:101000000746B060049808F0C1FC414608F08BFE2A
:101010000546F060059808F0B9FC414608F083FEEB
:10102000804630610121204608F07DFE294608F007
:10103000D9FC05464FF040442146384608F0D2FC22
:10104000414608F0CFFC294608F03AFB08F00CFBBB
:1010500007F0C8FADFF848824FF066373A46434651
:1010600008F028F807F0ECFD7061F06801210546F2
:1010700008F059FE8246294608F0B4FC0546B068DF
:101080002146814608F0AEFC494608F0ABFC2946F3
:1010900008F074FD4FF07E5108F012FB08F0E4FAFE
:1010A00004460D460121706808F03DFE494608F0EF
:1010B00099FC81465046316908F094FC494608F095
:1010C000FFFA08F0D1FA22462B4607F0D3FC3A4645
:1010D000434607F0EFFF07F0B3FD00E000E0B0612A
:1010E00008B0BDE8F08710B54221D020FFF7A7FB7C
:1010F00004464121D020FFF7A2FB04EB002008F0BA
:101100005DFCB0F18E4F03DD4FF08F4108F036FDEE
:10111000644908F03DFBC7E073657474696E67202D
:10112000626961732073756363657366756C6C794E
:10113000202E2E2E2E2E2E0D0A0000008A010020B9
:101140006D70755F7365745F73656E736F72206326
:101150006F6D706C657465202E2E2E0D0A000000D8
:101160000CED00E00400FA056D70755F7365745F47
:1011700073656E736F7220636F6D706C657465203C
:101180002E2E2E2E2E2E0D0A000000006D70755F83
:10119000636F6E6669675F6669666F20636F6D7007
:1011A0006C6574652E2E2E0D0A0000006D70755F43
:1011B0007365745F73616D706C655F7261746520D7
:1011C000636F6D706C6574652E2E2E0D0A00000025
:1011D000646D705F6C6F61645F6D6F74696F6E5F7B
:1011E0006472697665725F6669726D776172652097
:1011F000636F6D706C657465202E2E2E2E2E2E0D55
:101200000A00000078000020646D705F7365745FF1
:101210006F7269656E746174696F6E20636F6D7053
:101220006C657465202E2E2E2E2E2E0D0A000000C9
:10123000646D705F656E61626C655F666561747533
:10124000726520636F6D706C657465202E2E2E2E76
:101250002E2E0D0A00000000646D705F7365745FD0
:101260006669666F5F7261746520636F6D706C652F
:101270007465202E2E2E2E2E2E0D0A006D70755F99
:101280007365745F646D705F737461746520636F00
:101290006D706C657465202E2E2E2E2E2E0D0A007C
:1012A00066A64C400000AA4308F0DEF9064A074B48
:1012B00007F0F8FC0022064B07F0FCFE07F0C0FC2C
:1012C000BDE8104008F026BBA4703D0AD743424059
:1012D000000024401FB50121084603F0BFF81C2080
:1012E0008DF8000000248DF8014001208DF80300E6
:1012F000684602F0E2FD40F2E730ADF8080040F247
:10130000CF20ADF80400ADF80A40ADF806404FF02C
:10131000804401A9204603F0A3FB01221146204688
:1013200003F089FE0121204603F06BFE1FBD30B59E
:1013300089B00121082003F086F80121022003F082
:101340008DF818208DF8230003208DF82200ADF8C9
:10135000200008A91B4802F070FE40F2E730ADF80B
:1013600018004720ADF814000024ADF81A40ADF87D
:101370001640154D05A9284603F072FB6021ADF813
:1013800004100121ADF80610ADF80A40ADF80C408C
:1013900001A9284603F016FC0821284603F044FF63
:1013A00001A9284603F04CFC0821284603F042FF1F
:1013B0000121284603F031FE0121284603F021FED9
:1013C00009B030BD000C014000040040F8B5FB4CF2
:1013D0000023224694F8246006CA5D1E002E11D018
:1013E00010B10220009000E000931078C97B6B469A
:1013F0000122FFF789F908B12846F8BD9DF80000E1
:10140000607419E0A67A26B128B1667C1EB100206E
:10141000F8BD2846F8BD10B10120009000E000930F
:101420001078C97B6B460122FFF76EF908B1284698
:10143000F8BD9DF8000060740020F8BD38B50024A8
:10144000DE4D12E02868C27AA2420CD0407DA04254
:1014500009D008786B4601222146FFF7B6F910B192
:101460004FF0FF3038BD641CE4B269680879A042CF
:10147000E8D8002038BD30B40B46D04A4FF0FF35D5
:101480001168CC7A844202D0497D814202D128463B
:1014900030BC704751680A79824201D82846F7E784
:1014A0000C780146204630BC0122FFF78EB938B5D2
:1014B0000446C24D95F82300A04201D1002038BD5A
:1014C00014B13020009001E000200090A87C20B1F1
:1014D0009DF8000040F00200009095F8220020B135
:1014E0009DF8000040F08000009028686B460122C3
:1014F000017D68680078FFF707F910B14FF0FF3001
:1015000038BD85F82340002038BDF8B5044614F0F6
:10151000700F4FF0000602D00120009004E00CB1E3
:10152000009601E040200090A44D6B4601222868FF
:10153000817C68680078FFF7E7F84FF0FF3710B15B
:10154000AE723846F8BD9DF8000020F040002873C8
:101550000096600601D404200090A00604D49DF8F3
:10156000000040F002000090E00604D49DF8000066
:1015700040F001000090200704D49DF8000040F0E6
:101580003800009028686B460122C17C68680078AA
:10159000FFF7BAF810B1AE723846F8BD24B1082C86
:1015A00002D00020FFF783FFAC722E75322002F0CC
:1015B000A6FB0020F8BDF8B50446804DA87CA042EB
:1015C00001D10020F8BD7D484FF0FF36D0E9001072
:1015D000ACB3097900786B460122FFF7F6F808B141
:1015E0003046F8BD9DF8000020F0200000902868EB
:1015F0006B460122017968680078FFF785F808B129
:101600003046F8BD032002F07AFB0220009095F8E6
:10161000220008B18220009095F8230020B19DF8A7
:10162000000040F03000009028686B460122017DE8
:1016300068680078FFF768F8F0B33046F8BDFFE758
:10164000097900786B460122FFF7BFF808B13046F0
:10165000F4E7A87AC00705D09DF8000040F020000C
:10166000009004E09DF8000020F020000090286821
:101670006B460122017968680078FFF745F808B1E8
:101680003046DBE7032002F03AFB95F8220010B168
:101690008020009001E00020009095F8230020B108
:1016A0009DF8000040F03000009028686B46012251
:1016B000017D6868007800E004E0FFF725F808B1D4
:1016C0003046BBE7AC740020B8E7F8B53B4D4FF0AF
:1016D000FF36A87A00280CD00024009428686B46B6
:1016E0000122C17B68680078FFF70EF818B1304618
:1016F000A4E73046A2E728686B4601224179686872
:101700000078FFF701F808B1304697E728686B4684
:101710000122017968680078FEF7F6FF08B13046CB
:101720008CE795F8240078B30C20009028686B466D
:101730000122017968680078FEF7E6FF08B13046BB
:101740007CE7C0200090A87AC00701D0E02000907C
:1017500028686B460122017968680078FEF7D4FF9B
:1017600008B130466AE7687C10B10220009000E0C2
:10177000009428686B460122C17B68680078FEF7F8
:10178000C3FF10B1304659E70BE0009428686B4660
:101790000122417968680078FEF7B6FFB0B33046A1
:1017A0004CE70420009028686B46012201796868A4
:1017B0000078FEF7A9FF18B130463FE7840000200B
:1017C000A87C78B9A87AC0070CD06020009028685F
:1017D0006B460122017968680078FEF795FF20B119
:1017E00030462BE740200090F1E7687C10B10120E3
:1017F000009000E0009428686B460122C17B686875
:101800000078FEF781FF10B1304617E70AE028683C
:10181000FF4B0122417968680078FEF775FF08B137
:1018200030460BE7002009E72DE9F041002620F0C3
:101830000104F74D103D95F82400002802D0002047
:10184000BDE8F081A97A4FF0FF3839B12F7C2140F3
:101850002974A14200D0464624B901E04046EFE792
:10186000287D18B10120FFF7B1FD02E00020FFF74D
:10187000ADFD2CB1FFF729FF10B12F744046DFE713
:101880003046DDE738B5E24C4FF0FF35103CA17A29
:10189000002904D0BC2804D30120009017E028467A
:1018A00038BD622802D30220009010E02A2802D31B
:1018B000032000900BE0142802D30420009006E0DF
:1018C0000A2802D30520009001E006200090E07A6B
:1018D0009DF80010884201D1002038BD20686B4679
:1018E0000122817860680078FEF70EFF08B1284673
:1018F00038BD9DF80000E072002038BD2DE9F843A6
:1019000004464FF0FF37282C02D93846BDE8F8834B
:10191000BF4D00264FF00709103D8CB10120FFF7A5
:10192000C6FD20208DF800004FF00108012C1CD0CE
:10193000052C20D88DF801800520FFF7A3FF29E0B2
:101940000020FFF7B4FD8DF800608DF80190286845
:101950006B460222817C68680078FEF7D5FE08B1EC
:101960003846D3E72E750020D0E78DF801600520BA
:10197000FFF788FF0EE0142C06D802208DF8010036
:101980000A20FFF77FFF05E003208DF801001420F7
:10199000FFF778FF9DF8010009EB80108DF801003A
:1019A00028686B460222817C68680078FEF7ACFEEE
:1019B00008B13846AAE70820A8722E7385F814806B
:1019C0000020FFF731FF0020A0E7F8B50446904D56
:1019D0004FF0FF37103DA87A002804D095F8240076
:1019E00018B138462AE6384628E6287D50B134B189
:1019F000282C04D8E0B2FFF781FF00201EE600206B
:101A0000FFF77CFF4FF47A76042C01D2042402E025
:101A1000B44200D93446B6FBF4F0401E009028686A
:101A20006B460122417868680078FEF76DFE08B1C8
:101A3000384603E69DF80000401CB6FBF0F0E88154
:101A40004008FFF71FFF0020F8E538B5704C4FF055
:101A5000FF35103CA17A002909D0022809D00428BA
:101A60000AD008280BD010280CD0284638BD2846AC
:101A700038BD0020009007E00820009004E010200E
:101A8000009001E018200090607A9DF80010B0EB03
:101A9000D10F01D1002038BD20686B460122C179E9
:101AA00060680078FEF730FE08B1284638BD9DF822
:101AB0000000C0086072002038BD38B5544C4FF0AB
:101AC000FF35103CA17A00290CD0FA280CD0B0F5D3
:101AD000FA7F0CD0B0F57A7F0CD0B0F5FA6F0CD04D
:101AE000284638BD284638BD0020009007E0082071
:101AF000009004E01020009001E018200090207A6F
:101B00009DF80010B0EBD10F01D1002038BD206846
:101B10006B460122817960680078FEF7F5FD08B117
:101B2000284638BD9DF80000C0082072002038BD4E
:101B30002DE9FC4180208DF80000354C6B46103CAF
:101B400001222068817C60680078FEF7DDFD4FF09F
:101B5000FF3610B13046BDE8FC81642002F0CFF8BA
:101B600000258DF8005020686B460122817C60685A
:101B70000078FEF7C9FD08B13046ECE720686B46F7
:101B80000622817D60680078FEF71FFE08B13046AE
:101B9000E1E79DF805009DF80310C007400F01F034
:101BA000010140EA41019DF8010000F001000143FC
:101BB000012761B1012906D0022906D015A006F03F
:101BC00043F93046C7E7E77414E0E57412E0206893
:101BD0006B460122C17860680078FEF7F6FD08B117
:101BE0003046B8E79DF8000000F00F0030B304283D
:101BF0003CD0E574FF2104F80A1F04F8021C04F825
:101C0000011C61704FF6FF70A080A171217216E077
:101C100094000020556E737570706F727465642047
:101C2000736F6674776172652070726F6475637428
:101C3000207265762025642E0A00000011E0A7704E
:101C400027766576E572A572E56025616561A57602
:101C5000E576A5834FF4FA60FFF72FFF58B13046C1
:101C600079E7F84806F0F0F8304674E7F6A006F099
:101C7000EBF8E774BEE70220FFF7E7FE08B1304655
:101C800069E72A20FFF7FEFD08B1304663E73220FE
:101C9000FFF79BFE08B130465DE70020FFF7C4FD6B
:101CA00008B1304657E70020FFF785FC08B1304601
:101CB00051E70020FFF729FC00204CE770477CB576
:101CC00004460E46E8484FF0FF35817A11F0700F58
:101CD0000AD0016840686B46097B00780622FEF74F
:101CE00074FD18B128467CBD28467CBD9DF80100D6
:101CF0009DF8001040EA012020809DF803009DF827
:101D0000021040EA012060809DF805009DF8041053
:101D100040EA0120A08016B13046FFF7CFFF002037
:101D20007CBD7CB504460E46CF484FF0FF35817A26
:101D3000090701D428467CBD016840686B46497B91
:101D400000780622FEF741FD08B128467CBD9DF8CB
:101D500001009DF8001040EA012020809DF803005A
:101D60009DF8021040EA012060809DF805009DF872
:101D7000041040EA0120A08016B13046FFF79EFF14
:101D800000207CBDF8B505460F46B74C4FF0FF3636
:101D9000A07A00280AD020686B460222817B606806
:101DA0000078FEF712FD18B1304647E4304645E4AE
:101DB0009DF801009DF8001040EA012006B217B11D
:101DC0003846FFF77BFF6468E08807F0F7FD0746B9
:101DD000B4F9080007F0DAFD0446304607F0D6FDF6
:101DE000214607F0CBFE394607F0D2FC9F4907F0A9
:101DF00067FC102107F097FF07F08CFD286000209A
:101E00001CE42DE9F04188B004464FF0FF36002C69
:101E100002D0206818B106E0304608B010E56068CE
:101E200008B9A06850B1904D032206AB686811460E
:101E30000078FEF7CAFC18B13046EEE70020ECE768
:101E40009DF81810082000EB111101F00F02ADF8F9
:101E500000209DF8191000EB111101F00F01ADF8F1
:101E600002109DF81A3000EB131000F00F00ADF8CF
:101E7000040023685B00403293FBF2F20FFA82F811
:101E8000ADF8108062685200403192FBF1F10FB260
:101E9000ADF81270A1684900403091FBF0F004B237
:101EA000ADF814406868062206AB00781146FEF7CC
:101EB0008CFC08B13046B0E79DF819009DF8181069
:101EC00040EA0120ADF808009DF81B109DF81A208B
:101ED00041EA0222ADF80A209DF81D109DF81C3041
:101EE00041EA0321ADF80C104044ADF810003A442B
:101EF000ADF812202144ADF81410030A8DF8183003
:101F00008DF81900100A8DF81A008DF81B20080AA8
:101F10008DF81C008DF81D106868062206AB00784D
:101F20001146FEF7F1FB08B1304676E7002074E772
:101F30004D49097A002909D001290AD002290CD07B
:101F400003290ED00021018000207047FA21018072
:101F5000FAE74FF4FA710180F6E74FF47A710180E5
:101F6000F2E74FF4FA610180EEE73F4A517A002927
:101F700008D0012909D002290AD003290BD04FF03B
:101F8000FF3070470221017007E00421017004E076
:101F90000821017001E010210170D17C11B101789C
:101FA00049000170002070472F49C97A072917D2CC
:101FB000DFE801F01604070A0D101300BC210180B0
:101FC00010E0622101800DE02A2101800AE0142145
:101FD000018007E00A21018004E00521018001E081
:101FE00000210180002070471F4991F82420002A19
:101FF00002D04FF0FF307047C98901800020704740
:1020000000210180481E70474FF0FF30704716498D
:10201000097A002908D0012909D002290AD0032908
:102020000BD04FF0FF3070471149016007E01149B4
:10203000016004E01049016001E0104901600020E6
:1020400070470000E0AA000848616C662073656E66
:102050007369746976697479207061727420666F2F
:10206000756E642E0D0A00008400002000000C42F2
:102070000000034300008342333303423333834180
:10208000F94A517A002908D001290AD002290CD036
:1020900003290ED04FF0FF3070474FF4804101808C
:1020A0000AE041F69C71018006E04FF48051018006
:1020B00002E04FF400610180D17C11B10188490830
:1020C000018000207047E849097C017000207047BA
:1020D000E549897A002902D00121017001E000213F
:1020E00001700020704738B50546DF484FF0FF34D7
:1020F000817A00290AD0016840686B46097C007823
:102100000222FEF762FB18B1204638BD204638BDDA
:102110009DF801009DF8001040EA01202880002071
:1021200038BD2DE9FF4F83B0074688461E4600257F
:102130000024DFF834A34FF0FF399AF82400002878
:1021400003D0484607B0BDE8F08F002030709AF801
:102150000A00F0B19AF81020EAB1500600D5022525
:10216000900601D5AD1CEDB2D00601D5AD1CEDB287
:10217000100701D5AD1DEDB2DAF800006B46022262
:10218000817ADAF804000078FEF71FFB28B1484690
:10219000D8E74846D6E74846D4E79DF801009DF8C1
:1021A000001040EA012BAB4501D20020CAE7DAF863
:1021B00004004188BBEB510F13D9DAF80010007806
:1021C0006B46497C0122FEF700FB08B14846B9E79F
:1021D0009DF80000C00604D5FFF777FA6FF0010004
:1021E000B0E70598FFF76AFDDAF800006B462A466B
:1021F000C17ADAF804000078FEF7E7FA08B1484639
:10220000A0E7BBFBF5F01099401E0870002030706D
:10221000684605B39AF8101009071CD59DF80110FF
:102220009DF8002041EA0221A8F800109DF8031053
:102230009DF8022041EA0221A8F802109DF805103D
:102240009DF8042041EA0221A8F80410317841F0F9
:10225000080131700624AC420FD09AF810104906DC
:102260000BD50119025D497841EA022139803178A4
:1022700041F040013170A41CA4B2AC420FD09AF8D6
:10228000101089060BD50119025D497841EA022137
:102290007980317841F020013170A41CA4B2AC42A5
:1022A0000DD09AF81010C90609D50119005D4978BA
:1022B00041EA0020B880307840F0100030700020F3
:1022C00040E72DE9F843054689461746664E4FF02C
:1022D000FF3896F8240000280DD0B07A68B1306835
:1022E0006B460222817A70680078FEF76EFA30B190
:1022F0004046BDE8F8834046FBE74046F9E79DF8D5
:1023000001009DF8001040EA0124AC4203D20020F5
:1023100038704046EDE770684188B4EB510F12D930
:10232000316800786B46497C0122FEF74EFA08B10D
:102330004046DEE79DF80000C00604D5FFF7C5F96A
:102340006FF00100D5E73068EAB24B46C17A706899
:102350000078FEF73AFA08B14046CAE7B4FBF5F058
:10236000401E38700020C4E73F4981F82200002059
:1023700070472DE9FC4105463B4801AB042240680B
:102380000D210078FEF721FA08B107201AE49DF824
:1023900007009DF80420C0F3011102F0E00241EAB9
:1023A000D2018DF800109DF80520C0F3810102F0E4
:1023B000E00241EAD2018DF801109DF8061000F00C
:1023C000030001F0E00140EAD1008DF80200002492
:1023D0006E46305D20B1254845F82400244F0AE0C0
:1023E000002045F824000CE055F82400394607F099
:1023F000F9FA45F82400305D401E10F0FF0030551A
:10240000F2D1641CE4B2032CE3D3002028E42DE9CC
:10241000FE4F0746884600256846FFF7AAFF0024BE
:102420006FF00F0AE946012657F8240058F82410E7
:10243000401A00D5404207F0A9FA514607F073FC54
:1024400059F8241011F0FF4F16D007F0A1F94FF002
:102450007E5107F093FB20F000400649884213DDCF
:1024600006FA04F005430FE0840000207B14AE3E22
:102470001D5A843F295C0F3EFE490844FE498842AC
:1024800002D306FA04F00543641C032CCCDB284677
:10249000BDE8FE8F2DE9F84F81468A460025F748B2
:1024A0006B46032240680D210078FEF78EF910B1CB
:1024B0000720BDE8F88F9DF8000000F01F008DF8A0
:1024C00000009DF8010000F01F008DF801009DF84C
:1024D000020000F01F008DF8020000246F464FF04C
:1024E000010859F824005AF82410401A00D5404237
:1024F00007F04CFA6FF00F0107F015FC0646385D47
:10250000F8B1DF4ADFF87CB304E05946104607F023
:1025100069FA0246385D401E10F0FF003855F4D1CC
:102520001146304607F034F94FF07E5107F026FB94
:1025300020F00040D44988420BDD08FA04F005433E
:1025400007E0D2483044B0F1D97F02D908FA04F04C
:102550000543641C032CC4DB2846AAE72DE9F04799
:1025600088B005460C46924601208DF814000027DD
:102570008DF81570DFF8048305AB0222D8F800004F
:10258000817CD8F804000078FEF7BEF84FF0FF39E0
:1025900018B1484608B0BDE8F087C82001F0AFFB8D
:1025A0008DF81470D8F8000005AB0122C17BD8F873
:1025B00004000078FEF7A8F808B14846EAE7D8F822
:1025C000000005AB01224179D8F804000078FEF73D
:1025D0009BF808B14846DDE7D8F8000005AB0122BA
:1025E000817CD8F804000078FEF78EF808B14846E0
:1025F000D0E7D8F8000005AB0122C17DD8F804006F
:102600000078FEF781F808B14846C3E7D8F8000023
:1026100005AB01220179D8F804000078FEF774F8C0
:1026200008B14846B6E70C268DF81460D8F80000CB
:1026300005AB01220179D8F804000078FEF764F8B0
:1026400008B14846A6E70F2001F059FBD8F828004A
:10265000407A8DF81400D8F8000005AB012281788B
:10266000D8F804000078FEF74FF808B1484691E723
:10267000D8F82800007A8DF81400D8F8000005ABCF
:1026800001224178D8F804000078FEF73DF808B13F
:1026900048467FE7BAF1000F07D0D8F82800807AC3
:1026A00040F0E0008DF8140004E0D8F82800807AAB
:1026B0008DF81400D8F8000005AB01228179D8F814
:1026C00004000078FEF720F808B1484662E7BAF146
:1026D000000F07D0D8F82800C07A40F0E0008DF84D
:1026E000140002E018208DF81400D8F8000005ABA3
:1026F0000122C179D8F804000078FEF705F808B186
:10270000484647E7BAF1000F02D0C82001F0F7FAB7
:1027100040208DF81400D8F8000005AB01220179A3
:10272000D8F804000078FDF7EFFF08B1484631E71C
:1027300078208DF81400D8F8000005AB012241790B
:10274000D8F804000078FDF7DFFF08B1484621E71C
:10275000322001F0D4FA8DF81470D8F8000005ABDF
:1027600001224179D8F804000078FDF7CDFF08B1C7
:1027700048460FE7D8F8000005AB0222817AD8F866
:1027800004000078FEF721F808B1484602E79DF8FA
:1027900015009DF8141040EA0120B0FBF6F0C6B217
:1027A000AF606F602F60A76067602760002756E00A
:1027B000D8F8000005AB0C22C17AD8F804000078E4
:1027C000FEF703F808B14846E4E69DF815009DF8C9
:1027D000141040EA012002B2ADF80C209DF8170059
:1027E0009DF8161040EA012000B2ADF80E009DF8E9
:1027F00019109DF8183041EA032109B2ADF8101004
:1028000023681A442260626810446060A06808442B
:10281000A0609DF81B009DF81A1040EA012000B24C
:10282000ADF804009DF81D109DF81C2041EA02211E
:1028300009B2ADF806109DF81F209DF81E3042EA3F
:10284000032212B2ADF808202B681844286068688B
:1028500008446860A8681044A8607F1CFFB2B742B3
:10286000A6D328688322C117090441EA1041000455
:1028700000230DE0666666C19A99D90084000020A5
:102880000000C84154E3853F295C0F3E0000E0BED4
:1028900005F0B5FA3246002305F0B1FA2860686801
:1028A0008322C117090441EA10410004002305F006
:1028B000A6FA3246002305F0A2FA6860A8688322CF
:1028C000C117090441EA10410004002305F097FAFA
:1028D0003246002305F093FAA86020684FF40065A3
:1028E000C117090441EA104100042A46002305F0FB
:1028F00086FA3246002305F082FA206060682A4694
:10290000C117090441EA10410004002305F077FAD9
:102910003246002305F073FA6060A0682A46C117AA
:10292000090441EA10410004002305F068FA324628
:10293000002305F064FAA060002803DDA0F58030D4
:10294000A06002E000F58030A060002022E638B5EB
:10295000FE4C94F82410814201D1002038BD00259E
:10296000F0B194F82500C0B10020FEF72FFD002043
:10297000FEF721FEE08CFFF728F8009560686B46B3
:10298000012200782321FDF7BFFE012084F82400F6
:10299000FEF71CFDFEF799FE12E04FF0FF3038BD48
:1029A0000020FEF713FD207C009060686B4601223A
:1029B00000782321FDF7A8FE84F82450FEF785FE59
:1029C000002038BD2DE9F0438BB081468846DF4DAD
:1029D00095F82400002804D00020FFF7B8FF012656
:1029E00000E0002602A8FFF7A3FA04A8FFF7BDFA4B
:1029F0006846FFF7D9FA01A8FFF7F6FAAF7A03A8FD
:102A0000FFF761FB0024002241464846FFF7A6FD80
:102A100010B1641C022CF6DB022C19D00024012218
:102A200005A908A8FFF79AFD10B1641C022CF6DB7B
:102A3000022C0FD005A94046FFF7E9FC00F0FF0883
:102A400008A94846FFF726FDC0B2002420B104E0E3
:102A5000002407E0002405E00124B8F1000F01D1B3
:102A600044F00204FF2028726872E8724FF6FF718A
:102A7000E981A872287401202873BDF80800FFF7C7
:102A80001CF89DF81000FEF7E0FFBDF80000FEF70F
:102A9000F9FEBDF80400FEF798FF3846FEF735FD55
:102AA0009DF80C00FEF7C0FE16B10120FFF74FFFA6
:102AB0000BB02046BDE8F0832DE9F8430E46904662
:102AC0004FF0FF35B8F1000F0FD0A04FB97A71B1B8
:102AD000010A8DF80010C4B28DF80140A0197C687D
:102AE0006189884205D9284603E4284604E428463B
:102AF00004E438686B460222017E2078FDF704FE6C
:102B000008B1284606E43868F2B24346417D786849
:102B10000078FDF7F9FD08B128460AE4002008E432
:102B20002DE9F8430E4690464FF0FF35B8F1000FFF
:102B30000FD0864FB97A71B1010A8DF80010C4B276
:102B40008DF80140A0197C686189884205D9284622
:102B500003E4284607E4284605E438686B46022269
:102B6000017E2078FDF7D0FD08B12846BCE7386823
:102B7000F2B24346417D78680078FDF726FE08B141
:102B80002846B1E70020AFE72DE9FF4F85B00546A5
:102B90000E461746DFF8B4814FF0FF3998F825004C
:102BA000002803D0484609B0BDE8F08F0EB10024DC
:102BB00025E04846F7E7281B102800DD10201FFA03
:102BC00080FA30198346024651462046FFF774FFCB
:102BD00008B14846E7E701AA51462046FFF7A0FFA3
:102BE00008B14846DFE75846524601A905F0E6F924
:102BF00010B16FF00100D6E704EB0A0084B2AC42DA
:102C0000D9D3380A8DF800008DF80170D8F800008B
:102C10006B460222817ED8F804000078FDF774FD2F
:102C200008B14846BFE7012088F825000898A8F8B1
:102C300026000020B7E7454991F8241001700020D4
:102C400070474FF0FF3070474FF0FF3070472DE96D
:102C5000F84F8B4615463D4C4FF0FF3A04F11607EE
:102C60004FF000094FF00108002D71D0B0F5FF5F63
:102C700001D9FF2605E0202801D2012601E0C0F39A
:102C80004716BBF1000F01D14FF0010B282D01D9E0
:102C900050460EE4607DF8B994F8240028B1002075
:102CA000FFF755FE84F8208001E084F82090384634
:102CB000FFF73EF925481830FFF757F923481A3037
:102CC000FFF772F921481C30FFF78EF9A07AA07740
:102CD0001E481F30FFF7F7F90020FEF777FB0020B2
:102CE000FEF70CFE8DF8009020686B46012281787B
:102CF00060680078FDF708FD08B150462DE44020DB
:102D00008DF8000020686B460122C17B6068007866
:102D1000FDF7FAFC78BB8DF800608DF801B02068F3
:102D20006B460222017A60680078FDF7EDFC10BB6B
:102D3000052000F0E4FF607A072606EBC0008DF85E
:102D400000002068C1796068007802E084000020FB
:102D50002EE06B460122FDF7D7FC60B920208DF8EC
:102D60000000012D04D0052D06D88DF801800CE05F
:102D70008DF8019009E01EE0142D03D802208DF893
:102D8000010002E003208DF801009DF8010006EB30
:102D900080108DF8010020686B460222817C6068FB
:102DA0000078FDF7B1FC30B984F81580002070E799
:102DB0000021785C30B3FF2020726072E0724FF621
:102DC000FF71E181A072207484F80C80A07FFEF76F
:102DD0009CFBE08AFEF771FE207EFEF736FE608BDC
:102DE000FEF750FDA08BFEF7F0FDE07FFEF71CFD27
:102DF00094F8200010B10120FFF7A9FD84F8159088
:102E0000002046E7491C0C29D3D3504641E7000077
:102E1000C8234FF48062F84940F6F630FFF7B4BE9D
:102E200030B587B00446F5A000680490F4A00068AF
:102E30000390F4A000680290F3A00068019004F0F1
:102E4000030004AB195C8DF81810C4F3C102995C3F
:102E50008DF81910C4F381115B5C8DF81A3003AB47
:102E6000185C8DF81400985C8DF81500585C8DF88E
:102E7000160006AA032140F22640FFF71DFE4FF080
:102E8000FF3510B1284607B030BD05AA032140F236
:102E90002A40FFF711FE08B12846F4E70298069091
:102EA0000198059060070BD59DF8180040F00100CF
:102EB0008DF818009DF8140040F001008DF8140002
:102EC000A0060BD59DF8190040F001008DF81900FF
:102ED0009DF8150040F001008DF81500E0050BD5B8
:102EE0009DF81A0040F001008DF81A009DF81600B8
:102EF00040F001008DF8160006AA03214FF4886007
:102F0000FFF7DAFD08B12846BDE705AA032140F224
:102F10003140FFF7D1FD08B12846B4E7BB48048132
:102F20000020B0E71FB5B949098901F0030250F844
:102F3000222001924A0702D5019A52420192C1F31E
:102F4000C10250F8222002928A0602D5029A524209
:102F50000292C1F3811250F822000390C80502D5F5
:102F6000039840420390AA48019981FB00218B00FD
:102F700043EA92710191029981FB00218B0043EA9F
:102F800092710291039981FB0001800F40EA810058
:102F900003900198000E8DF800000198000C8DF848
:102FA00001000198000A8DF8020001988DF80300D5
:102FB0006A4604214FF47470FFF77EFD4FF0FF3432
:102FC00010B1204604B010BD0298000E8DF800002C
:102FD0000298000C8DF801000298000A8DF802009A
:102FE00002988DF803006A4604214FF47570FFF7CC
:102FF00063FD08B12046E5E70398000E8DF8000058
:103000000398000C8DF801000398000A8DF8020067
:1030100003988DF803006A4604214FF47670FFF799
:103020004BFDCFE730B587B004466846FFF728F878
:10303000BDF80000420CC1037448038903F003008B
:1030400054F820000490580702D504984042049098
:10305000C3F3C10054F820000590980602D50598E6
:1030600040420590C3F3811054F820000690D80523
:1030700002D50698404206900498A0FB0145C3176C
:1030800003FB015300FB0230830043EA9470049079
:103090000598A0FB0145C31703FB015300FB023059
:1030A000830043EA947005900698A0FB0145C3177E
:1030B00003FB015100FB0210810041EA947006906D
:1030C0000498000E8DF804000498000C8DF805009B
:1030D0000498000A8DF8060004988DF807000598FA
:1030E000000E8DF808000598000C8DF80900059871
:1030F000000A8DF80A0005988DF80B000698000E5E
:103100008DF80C000698000C8DF80D000698000A4A
:103110008DF80E0006988DF80F0001AA0C214FF4CF
:103120002570FFF7C9FCAEE630B585B0044639A17D
:10313000D1E900028968CDE9032102904FF0FF3503
:10314000C82C02D9284605B030BDC820B0FBF4F128
:10315000491E080A8DF800008DF801106A46022108
:1031600040F21620FFF7A8FC08B12846EBE702AAB8
:103170000C2140F6C120FFF79FFC08B12846E2E78A
:10318000224884810020DEE72049898901800020CF
:1031900070472DE9FC410546084669074FF0FF36A8
:1031A00002D0B0F5C86F02D93046BDE8FC8106F008
:1031B00005FC1B4906F0ECFA07466846FEF7D5FE0B
:1031C0009DF80000022807D004282DD008283AD006
:1031D000102847D03046E8E70E21384606F0A3FD18
:1031E00006F0B4FB84B20F49384606F0FBFB06F04C
:1031F000ADFB80B244E00000F49D00084CCD6C00B3
:103200000CC92C00365676002646660010020020B7
:1032100009E3CA02FEF2ABC4AAF1DFDFBBAFDFDF16
:1032200000004843000040460D21384606F07BFD73
:1032300006F08CFB84B2F949384606F0D3FB06F061
:1032400085FB80B21CE00C21384606F06CFD06F0D0
:103250007DFB84B2F249384606F0C4FB06F076FBEB
:1032600080B20DE00B21384606F05DFD06F06EFBE6
:1032700084B2EC49384606F0B5FB06F067FB80B235
:10328000210A8DF804108DF80540010A8DF806100A
:103290008DF80700E80701AC11D001AA02214FF414
:1032A000EA70FFF709FC08B130467EE7A21C022154
:1032B0004FF49270FFF700FC08B1304675E7A8079D
:1032C00011D501AA02214FF4EC70FFF7F5FB08B10C
:1032D00030466AE7A21C02214FF49470FFF7ECFB22
:1032E00008B1304661E7680711D501AA02214FF401
:1032F000EE70FFF7E1FB08B1304656E7A21C022151
:103300004FF49670FFF7D8FB08B130464DE7002028
:103310004BE708B500210091C10701D03021009191
:10332000810704D59DF8001041F00C010091400781
:1033300004D59DF8000040F0030000906A4601218A
:103340004FF4A470FFF7B8FB08BD08B500280BD0F8
:10335000042800D90420401E00906A46012140F252
:103360004F10FFF7A9FB08BD0120F4E708B50521C0
:10337000B0FBF1F0010A8DF800108DF801006A46EB
:1033800002214FF4EF70FFF797FB08BD08B5052148
:10339000B0FBF1F0010A8DF800108DF801006A46CB
:1033A00002214FF4ED70FFF787FB08BD08B54FF41D
:1033B0007A7290FBF2F04843010E8DF80010010C78
:1033C0008DF80110010A8DF802108DF803006A468D
:1033D00004214FF4AE70FFF76FFB08BD08B505215F
:1033E000B0FBF1F0010A8DF800108DF801006A467B
:1033F00002214FF4AD70FFF75FFB08BD08B5052152
:10340000B0FBF1F0010A8DF800108DF801006A465A
:1034100002214FF4AC70FFF74FFB08BD38B50446EE
:103420004FF0FF35002C08D06A4604214FF4587045
:10343000FFF776FB18B1284638BD284638BD9DF801
:1034400003009DF800109DF8022040EA01609DF8FD
:103450000110090441EA022108432060002038BD20
:1034600008B5010E8DF80010010C8DF80110010A4D
:103470008DF802108DF803006A4604214FF458704D
:10348000FFF71AFB08BD38B504464FF0FF35002C96
:1034900008D06A4604214FF47170FFF741FB18B160
:1034A000284638BD284638BD9DF803009DF8001019
:1034B0009DF8022040EA01619DF80100000440EA05
:1034C0000220014301EB810080002060002038BD14
:1034D00008B51421B0FBF1F0010E8DF80010010CBD
:1034E0008DF80110010A8DF802108DF803006A466C
:1034F00004214FF47170FFF7DFFA08BD08B500280A
:103500000CD020208DF8000028208DF801003020FC
:103510008DF8020038208DF8030004E0A322042176
:10352000684604F0FFFD6A46042140F69E20FFF73E
:10353000C3FAFEF7CAF808BD08B500280CD0C020B1
:103540008DF80000C2208DF80100C4208DF8020023
:10355000C6208DF8030004E08B220421684604F0A5
:10356000E1FD6A46042140F69820FFF7A5FAFEF730
:10357000ACF808BD0EB54FF4976300280CD02AA014
:10358000D0E900128068CDE9001202906A46092154
:103590001846FFF791FA0EBD26A0D0E90012806808
:1035A000CDE9001202906A4609211846FFF784FA15
:1035B0000EBD3EB5044602208DF80000CA208DF8ED
:1035C0000100E3208DF8020009208DF803006A460F
:1035D00004216820FFF770FAA3208DF8000061062F
:1035E00009D5C0218DF80110C8218DF80210C22123
:1035F0008DF8031005E08DF801008DF802008DF8BC
:10360000030014F4C07F1BD0C4218DF80410CC211A
:103610008DF80510C6218DF8061017E00000C04592
:10362000000040450000C044B8AAB38DB4980D35E1
:103630005D000000B8AAAAAAB088C3C5C7000000F0
:103640008DF804008DF805008DF806008DF8070050
:103650008DF808008DF809006A460A2140F6A72077
:10366000FFF72AFAA0074FF0D80503D020208DF8E5
:10367000000001E08DF800506A46012140F6B620B6
:10368000FFF71AFAA00603D50120FFF773FF02E047
:103690000020FFF76FFF14F4C07F20D0E0050CD5A9
:1036A000B2208DF800008B208DF80100B6208DF837
:1036B00002009B208DF803000BE0B0208DF8000085
:1036C00080208DF80100B4208DF8020090208DF844
:1036D00003006A46042140F6A220FFF7EDF9E00757
:1036E0004FF40B6323D0F8208DF800006A460121C7
:1036F0001846FFF7E1F9FA210720FFF74AFD0720F6
:10370000FFF707FE0120FFF720FE6420FFF72EFEE3
:103710004FF4FA70FFF73AFEC821AF48FFF746FEB4
:103720002820FFF75BFE0A20FFF768FE06E08DF811
:1037300000506A4601211846FFF7BEF9A00703D5DD
:10374000D9208DF8000001E08DF800506A46012173
:1037500040F23D70FFF7B0F9600703D50120FFF795
:10376000EBFE02E00020FFF7E7FEE00603D50120B4
:10377000FFF7C4FE02E00020FFF7C0FE974D44F0C3
:1037800008006881FDF7A1FF0020A873600601D53D
:103790000620A87314F4C07F02D0A87B801DA873F4
:1037A00014F0140F02D0A87B1030A873A00702D029
:1037B000A87B001DA87300203EBD8849498901806F
:1037C0000020704770B50446E07800F0C00500F0B6
:1037D0003F006178814EC90707D0C30800F0070198
:1037E000491C32680AB1184690476078000703D533
:1037F000716809B1A8098847002070BD00B587B07D
:1038000077A1D1E900238968CDE90423069177A146
:10381000D1E900238968CDE90123039140F6822391
:1038200001280BD0022803D04FF0FF3007B000BDB5
:1038300004AA0B211846FFF73FF9F7E701AA0B216D
:103840001846FFF739F9F1E72DE9FF4F8DB016461D
:10385000DDE91A52074688460024A146A5F80090E3
:10386000DFF878B105A99BF80E00FEF72AFD4FF0AE
:10387000FF3A18B1504611B0BDE8F08FBBF80A30DE
:1038800013F0140F61D09DF817009DF814109DF8E7
:10389000162040EA01609DF81510090441EA022152
:1038A000084330609DF81B109DF818209DF81A40C1
:1038B00041EA02619DF81920120442EA04221143F0
:1038C00071609DF81F209DF81C409DF81EC042EAC3
:1038D00004629DF81D40240444EA0C242243B26093
:1038E0009DF823409DF820C09DF822B044EA0C6C5E
:1038F0009DF82140240444EA0B244CEA040CC6F849
:103900000CC01024001401900814029010140390AD
:103910004FEA2C40049001980299404301FB0101B9
:103920000398049A404302FB02000844A0F170602F
:10393000B0F1007F05D9FDF7C8FEA5F8009050460C
:1039400099E7288840F480702880590605A818D582
:103950000219065D517841EA0621A8F80010D178D5
:10396000967841EA0621A8F802105179127941EAC5
:103970000221A8F80410A41DE4B2298841F008012E
:10398000298013F4C07F15D00119065D4A7842EAF8
:1039900006223A80CA788E7842EA06227A804A79EC
:1039A000097942EA0121B980A41DE4B2298841F0D5
:1039B00070012980990702D02044FFF703FF109877
:1039C000FEF77CF9002056E70449086000207047A4
:1039D000024948600020704709E3CA021002002033
:1039E000D8B1B9F38BA391B609B4D900DAB1B9F360
:1039F0008BA391B6DAB4DA00002800DA40427047AF
:103A000030B50023824A0124002804DDC2F8BC310D
:103A1000C2F8B84103E0C2F8BC41C2F8B831FFF7C0
:103A2000EBFF7C4D2880002904DDC2F8B431C2F8D8
:103A3000B04103E0C2F8B441C2F8B0310846FFF724
:103A4000DBFF74490C39088030BD10B541F6F42015
:103A500071490A787149012A02D10A6864320A6000
:103A60006F4A13786F4A012B02D11368643B1360CD
:103A70006D4B0C689C4200DA0B600C68844200DDE0
:103A800008601168994200DA13601168814200DD14
:103A9000106010BD2DE9F041084405F077FF0546A0
:103AA000624EF06805F0E0FD614C624B224605F085
:103AB00001FB05F0C5F80746284605F0D5FD22466E
:103AC0005D4B05F0F7FA04460D46384605F0CCFD8F
:103AD00022462B4605F0E6F805F0B2F80446F06001
:103AE0000146706905F0ECFD316906F047F8706138
:103AF0005249884200DD716151487169814200D9A3
:103B0000706150480168706905F06CFF05464E48C9
:103B10000168204605F066FF294605F0D1FD70607A
:103B2000BDE8F04105F0F6BE70B504460A464748C8
:103B30000168104605F056FF0546454821460068D5
:103B400005F050FF294605F0BBFDBDE8704005F0CB
:103B5000E1BE10B5012815D1FDF730FA3D483E49C8
:103B6000006880F0004008603C4CB4F9000040421E
:103B700005F00CFF3A490860B4F9040005F006FFAF
:103B80003849086010BD2DE9F04137480068002829
:103B900033D136494FF400400860244C207878B384
:103BA00000202070324F01282DD00220FCF7AFFFFB
:103BB000304D28600420FCF7AAFF2F4E3060387883
:103BC000FFF7C7FF2648016823480068FFF7ACFFEE
:103BD000A06131682868FFF75DFFE061A1690844D2
:103BE000216A0E4C421A22600E4D08442860FFF7ED
:103BF0002CFF29682068FFF703FF0020BDE8F08153
:103C0000FFE70120CDE73878FFF7A3FF0020F5E7B5
:103C100000802142402C01401400002020000020A0
:103C200015000020240000200CE5FFFFB00000205C
:103C30009A9999999999E93F9999C93F00401C46E9
:103C400000401CC6100000200C00002008000020CE
:103C50000400002068000020280000206C000020E4
:103C60002C000020300000203C812142140401403F
:103C700000000020180000201C00002010B503F0F8
:103C800029F9012803D0BDE8104003F04CBF10BD56
:103C900010B5042000F054F92C482D492D4A006835
:103CA000B0FBF1F31370B0FBF1F14FF47A704143C4
:103CB000012050804FF0E020026942F002020261D0
:103CC0004161016941F00101016110BD70B5002140
:103CD0004FF0E0256C691F4A12785043AB69AA691E
:103CE0009A42FCD003D2A3EB0203194403E0A4EBF5
:103CF00002063344194413468142F0D370BD70B5B7
:103D0000044603F0E7F801280CD0124D688884427D
:103D100003D3B4FBF0F002F061FC6888B4FBF0F16F
:103D200000FB11444FF47A706043BDE87040CDE76A
:103D300070B5054600244FF47A7603E03046FFF76D
:103D4000C5FF641CAC42F9D370BD000034000020F4
:103D500040420F00D4000020704741490A885206B3
:103D6000FCD53F4AC1B2121D1180704770B586B0B4
:103D70000546012144F2040000F065FB4FF4007099
:103D8000ADF8140003248DF8164018218DF8171093
:103D9000344E05A9304600F050F93115ADF8141035
:103DA00004218DF8171005A9304600F046F92520AA
:103DB0008DF800008DF801408DF8024001208DF84B
:103DC0000300684600F079F801950020ADF808007E
:103DD000ADF80A00ADF80C00ADF810000C20ADF8FD
:103DE0000E001F4C01A9204600F0CCFB012240F23E
:103DF0002551204600F04DFC0121204600F03DFCFD
:103E000006B070BD70B5164C40F22551204600F04A
:103E10000DFD00280ED0204600F094FCC1B2124ADD
:103E20001088030406D444044FF0000307D50A2980
:103E300001D0138070BD40F40040108070BD0D298A
:103E40000AD00A4DC0F30D042955401C80B21080E1
:103E5000C728F3D9138070BD40F48040108070BD36
:103E60000038014000080140D80000202002002056
:103E70000948804709480047FEE7FEE7FEE7FEE7FE
:103E8000FEE7FEE7FEE7FEE7FEE7FEE7044805493A
:103E9000054A064B704700007D030008ED0000084E
:103EA000982E002098340020983000209830002070
:103EB0002A4908432A490860704770B50F23C27821
:103EC00001260178002A1ED0254A126802F4E06219
:103ED000C2F5E062120AC2F10404D3404578A5405D
:103EE00082781A402A43120101F1E02181F800246E
:103EF000007800F01F018E404009800000F1E020B2
:103F0000C0F8006170BD01F01F00864048098000C4
:103F100000F1E020C0F8806170BD124A11400143F9
:103F20000F48001F016070470D4A121D002903D081
:103F30001168014311607047116881431160704737
:103F40004FF0E021042804D0086920F00400086143
:103F50007047086940F00400086170470000FA05E6
:103F60000CED00E080FFFF1F10B59C49884209D18D
:103F70000121042000F07DFA0021BDE8104004205A
:103F800000F077BA9649884209D10121082000F053
:103F900070FA0021BDE81040082000F06ABA91498B
:103FA000884209D10121102000F063FA0021BDE808
:103FB0001040102000F05DBA8B49884209D10121E0
:103FC000202000F056FA0021BDE81040202000F02B
:103FD00050BA8649884209D10121402000F049FAAF
:103FE0000021BDE81040402000F043BA80498842DB
:103FF00009D10121802000F03CFA0021BDE81040E9
:10400000802000F036BA7B4988420AD1841501210C
:10401000204600F02EFA2046BDE81040002100F0B6
:1040200028BA10BD10B50121084600F022FA00217F
:10403000BDE81040012000F01CBA2DE9F04100223B
:10404000CC7804F00F03E40601D58C7823430C7878
:104050004FF00F0714F0FF0F4FF0010C1CD0056854
:104060000CFA02F40E882640A64211D1960007FAF7
:1040700006F825EA080503FA06F848EA0505CE78A9
:10408000282E02D0482E02D002E0446100E00461F4
:10409000521C082AE4D305600A88FF2A1ED9456805
:1040A000002202F108060CFA06F40E882640A64209
:1040B00010D1960007FA06F825EA080503FA06F873
:1040C00048EA0505CE78282E00D14461CE78482EE6
:1040D00000D10461521C082AE3D34560BDE8F08199
:1040E0004FF6FF710180022181700421C170704779
:1040F0000246002092680A4200D001207047806882
:1041000080B2704702460020D2680A4200D00120E7
:104110007047C06880B27047016170474161704765
:10412000002A01D00161704741617047C16070474A
:1041300041F4803282618161826181698069704766
:1041400010B52D4B1A684FF68074224042EA0010D9
:104150000843186010BD2949C8617047F0B5264C66
:10416000002801DAE36900E06368C0F30346420D0A
:10417000120185B2C0F301579540032F07D0C20248
:104180000CD50322B240934343F0706209E023F060
:104190007062636823F07063636002E0AB4343F0D6
:1041A000706201B12A43002801DAE261F0BD626069
:1041B000F0BD10B58A07120F0F23934021F00304BE
:1041C0000D4921448C689C438C608B68904003436C
:1041D0008B6010BD0949DC31086070470008014060
:1041E000000C014000100140001401400018014083
:1041F000001C01400020014000000140000020425E
:10420000B448016841F0010101604168B24A1140BF
:1042100041600168B14A11400160016821F48021C8
:104220000160416821F4FE0141604FF41F0181608B
:104230007047A8490A6822F480320A600A6822F4AA
:1042400080220A60B0F5803F07D0B0F5802F03D1FF
:10425000086840F4A02008607047086840F4803087
:10426000086070470346002059099A4A01290AD07C
:1042700002290AD0516A03F01F02012393400B4226
:1042800000D0012070471168F5E7116AF3E718B50F
:10429000002000904FF4A0643120FFF7E3FF009965
:1042A000491C00910099A14201D00028F4D031208E
:1042B000FFF7D8FF08B1012018BD002018BD854ABE
:1042C000116821F0F80141EAC0001060704784498C
:1042D000086070477F4B5A6822F47C1208431043F1
:1042E000586070477E49086670477A4A516821F0E5
:1042F00003010143516070477648406800F00C00AC
:104300007047744A516821F0F001014351607047D1
:10431000704A516821F4E0610143516070476D4A71
:10432000516821F4605141EAC00050607047694A09
:10433000002903D0517A014351727047517A814369
:10434000517270476649D83108607047614A5168B8
:1043500021F440410143516070475E490022203101
:104360000A7001F82029012805D0042802D105206F
:1043700081F820007047012081F8200070475949DA
:104380000860704753490A6A02430A6270475549F8
:1043900044390860704710B54E4A516801F00C016D
:1043A000514B002927D0042927D0082927D00360A2
:1043B000516801F0F00109094C4B5C5C0168E14077
:1043C0004160546804F4E064240A1C5D21FA04F49A
:1043D0008460546804F46054E40A1B5DD940C160F1
:1043E000526802F44042920B404B1B1F9A5CB1FB97
:1043F000F2F1016110BD0360DAE70360D8E75168AC
:1044000001F47011536803F48033022404EB9141EA
:1044100033B153689B0307D5354B59430160C7E758
:10442000334B59430160C3E72F4B59430160BFE74A
:10443000284A002903D051690143516170475169ED
:10444000814351617047234A002903D09169014398
:104450009161704791698143916170471D4A0029BC
:1044600003D0D1690143D1617047D1698143D161E2
:104470007047184A002903D0D1680143D1607047C2
:10448000D1688143D1607047124A002903D0116975
:1044900001431161704711698143116170471149EE
:1044A0004039086070470E49C86470470949C871AF
:1044B00070470848416A41F0807141627047014687
:1044C0000020044A92680A4200D001207047014946
:1044D00088727047001002400000FFF8FFFFF6FEF0
:1044E000000042428004424200127A00E4000020B0
:1044F00000093D0010B5E14988420AD101218C0331
:104500002046FFF7B6FF2046BDE810400021FFF728
:10451000B0BFDB4988420AD101214C042046FFF795
:10452000B3FF2046BDE810400021FFF7ADBFD549DD
:1045300088420AD101218C042046FFF7A5FF2046BE
:10454000BDE810400021FFF79FBFCF4988420AD144
:104550000121CC042046FFF797FF2046BDE810401C
:104560000021FFF791BFC94988420AD101210C05FA
:104570002046FFF789FF2046BDE810400021FFF7E5
:1045800083BF10BD30B585B004460D46208A4CF679
:10459000FF710840E98801432182A0894EF6F3119A
:1045A0000840A9882A8911436A8902431143A181DD
:1045B000A08A4FF6FF410840A9890143A1826846BD
:1045C000FFF7E9FEAD48844201D1039800E002986C
:1045D000A189090408D500EBC00101EB001029688E
:1045E0004900B0FBF1F007E000EBC00101EB001067
:1045F00029688900B0FBF1F06422B0FBF2F10901F7
:104600000B096FF018056B4300EB8300A3891D04B1
:104610004FF0320307D503EBC000B0FBF2F000F01F
:104620000700084306E003EB0010B0FBF2F000F0D7
:104630000F000843208105B030BD4FF416510160D2
:1046400000218180C18001810C22428181817047DB
:1046500010B5038A4FF2FF0213400A884C882243A8
:104660008C88C9880C4322431A43028210BD002162
:10467000018041808180C1807047002904D08189F8
:1046800041F4005181817047818921F40051818179
:10469000704710B540F66A13C1F3421301F01F04CE
:1046A0000121A140012B07D0022B07D014303AB1D1
:1046B00002680A43026010BD0C30F8E71030F6E7DC
:1046C00002688A43026010BD002A03D0828A0A432E
:1046D00082827047828A8A4382827047028A22F0ED
:1046E0000F020282028A0A4302827047828922F400
:1046F0000062828182890A4382817047002904D046
:10470000818941F0020181817047818921F0020194
:1047100081817047028A22F020020282028A0A43C3
:1047200002827047002904D0018A41F4804101824D
:104730007047018A21F4804101827047C1F308016A
:10474000818070478088C0F308007047818941F0FC
:10475000010181817047028BD2B20283028B42EA4F
:10476000012101837047028B02F47F420283028B96
:104770000A4302837047002904D0818A41F0200156
:1047800081827047818A21F020018182704700294F
:1047900004D0818A41F0100181827047818A21F022
:1047A000100181827047002904D0818A41F00801FC
:1047B00081827047818A21F0080181827047002937
:1047C00004D0818941F40041818170478189C1F31E
:1047D0000E0181817047002904D0818A41F4006173
:1047E00081827047818A21F4006181827047828AC8
:1047F00022F004028282828A0A4382827047002960
:1048000004D0818A41F0020181827047818A21F0BF
:104810000201818270470246002012880A4200D0BD
:10482000012070478A05C9430180704770B5002494
:1048300040F66A12C1F3421301F01F05012606FA81
:1048400005F2012B0CD0022B0DD0838A1340090AEC
:104850008E40008830400BB100B10124204670BD6D
:1048600083891340F3E7038A1340F0E740F66A12A6
:104870000A0A01219140C943018070470038014074
:104880000044004000480040004C00400050004000
:1048900010B5FE4988420AD1C41401212046FFF711
:1048A000E8FD2046BDE810400021FFF7E2BDB0F171
:1048B000804F0CD0F649884213D101210220FFF726
:1048C000E3FD0021BDE810400220FFF7DDBD01211E
:1048D0000846FFF7D9FD0021BDE810400120FFF791
:1048E000D3BDEC49884209D101210420FFF7CCFD5A
:1048F0000021BDE810400420FFF7C6BDE64988420C
:1049000009D101210820FFF7BFFD0021BDE81040BB
:104910000820FFF7B9BDE149884209D101211020E3
:10492000FFF7B2FD0021BDE810401020FFF7ACBD3D
:10493000DB49884209D101212020FFF7A5FD002194
:10494000BDE810402020FFF79FBDD64988420AD11C
:10495000441401212046FFF78CFD2046BDE810409D
:104960000021FFF786BDD04988420AD10121CC043D
:104970002046FFF77EFD2046BDE810400021FFF7EE
:1049800078BDCA4988420AD101210C052046FFF7AB
:1049900070FD2046BDE810400021FFF76ABDC44904
:1049A00088420AD101214C052046FFF762FD2046CE
:1049B000BDE810400021FFF75CBDBE49884209D127
:1049C00001214020FFF760FD0021BDE8104040209C
:1049D000FFF75ABDB849884209D101218020FFF76D
:1049E00053FD0021BDE810408020FFF74DBDB349C5
:1049F00088420AD1841501212046FFF745FD204653
:104A0000BDE810400021FFF73FBDAD4988420AD103
:104A100001210C042046FFF72CFD2046BDE8104084
:104A20000021FFF726BDA74988420AD101214C0485
:104A30002046FFF71EFD2046BDE810400021FFF78D
:104A400018BDA14988420AD101218C042046FFF7F4
:104A500010FD2046BDE810400021FFF70ABD10BD43
:104A600030B50288894C8F4DA0420DD0A8420BD0A2
:104A7000B0F1804F08D0864B984205D0854B9842C4
:104A800002D0854B984203D122F070034A881A4322
:104A9000824B984206D0824B984203D022F4407356
:104AA000CA881A4302808A8882850A880285A042C1
:104AB0000AD0A84208D0824A904205D0814A90424A
:104AC00002D0814A904201D1097A01860121818276
:104AD00030BD30B5028C22F001020284028C838842
:104AE000048B24F0700424F003050C882C4322F07E
:104AF00002020D8915434A882A43644DA8420BD00F
:104B0000684DA84208D06E4DA84205D06D4DA84210
:104B100002D06D4DA8420FD122F008054A892A43E0
:104B200022F004058A882A4323F4807323F4007357
:104B30008D891D43CB892B4383800483C98881865B
:104B4000028430BD70B5028C22F010020284028C07
:104B50008388048B24F4E04424F440760D884FF6D7
:104B6000FF7404EA0525354322F020020E8904EA89
:104B7000061616434A8804EA02123243434EB042F4
:104B800002D0484EB04217D122F080024E8904EA8A
:104B90000616164326F040068A8804EA02123243BB
:104BA00023F4806323F400638E8904EA86061E439F
:104BB000CB8904EA8303334383800583C988018753
:104BC000028470BD70B5028C22F480720284028C63
:104BD0008388848B24F0700424F003040D8825431B
:104BE00022F400720E894FF6FF7404EA062616437B
:104BF0004A8804EA02223243244EB04202D0294EAF
:104C0000B04217D122F400664A8904EA02223243F4
:104C100022F480668A8804EA0222324323F4805315
:104C200023F400538E8904EA06161E43CB8904EA56
:104C30000313334383808583C9888187028470BDD1
:104C400070B5028C22F480520284058C8288838B9A
:104C500023F4E04323F440760C884FF6FF7303EA15
:104C60000424344325F400550E8903EA06362E4306
:104C70004D8803EA05353543044EB04202D0094E53
:104C8000B04226D122F480468A891FE0002C0140E0
:104C90000004004000080040000C004000100040EC
:104CA0000014004000340140004C0140005001401D
:104CB0000054014000180040001C0040002000404B
:104CC00000400140004401400048014003EA8212D4
:104CD000324382808483C988A0F84010058470BD67
:104CE000828B22F440628283828B4FF6FF7303EA49
:104CF00001210A4382837047F0B5048C24F4805468
:104D00000484868B048C4FF6FF7505EA013726F480
:104D1000734605EA0222324305EA03331343F74A96
:104D200090420ED0F64A90420BD0B0F1804F08D09E
:104D3000F44A904205D0F44A904202D0F34A90429D
:104D400005D124F40051394341F4805104E024F4A6
:104D500002420A4342F4805183830184F0BD828B76
:104D600022F00C028283828B0A4382837047F0B563
:104D7000048C24F480740484858B048C4FF6FF77B4
:104D800007EA012625F0F30507EA031313432B4333
:104D9000DA4A90420ED0DA4A90420BD0B0F1804FFE
:104DA00008D0D84A904205D0D74A904202D0D74A7C
:104DB000904205D124F40071314341F4807104E044
:104DC00024F420620A4342F4807183830184F0BD9D
:104DD000028B22F440620283028B4FF6FF7303EAD8
:104DE00001210A4302837047F0B5048C24F01004BB
:104DF0000484068B048C4FF6FF7505EA011726F430
:104E0000734605EA0333334305EA02221A43BB4BD8
:104E100098420ED0BA4B98420BD0B0F1804F08D0D8
:104E2000B84B984205D0B84B984202D0B74B984245
:104E300005D124F02001394341F0100104E024F0B1
:104E4000A0030B4343F0100102830184F0BD028BE9
:104E500022F00C020283028B0A430283704770B572
:104E6000048C24F001040484058B048C25F0F305E4
:104E70004FF6FF7606EA031313432B439F4A9042F3
:104E80000ED09F4A90420BD0B0F1804F08D09D4A7F
:104E9000904205D09C4A904202D09C4A904205D153
:104EA00024F002020A4342F0010104E024F00A0265
:104EB0000A4342F001010383018470BD70B50546C9
:104EC0000C468E48854209D08D48854206D0B5F102
:104ED000804F03D08B48854200D08B482088618862
:104EE000A288238958B1042811D0082817D0284651
:104EF000FFF702FFE1882846BDE87040F0E628464B
:104F0000FFF7ADFFE1882846BDE870409FE72846DF
:104F1000FFF76AFFE1882846BDE8704058E7284659
:104F2000FFF725FFE1882846BDE8704017E72DE927
:104F3000F04107460C46002501266188002900D172
:104F40000225A288012A00D102262088238988B15F
:104F50003846FFF749FFE1883846FFF739FF2389D4
:104F6000324629463846FFF77AFFE1883846BDE8E1
:104F7000F0416CE73846FFF772FFE1883846FFF7EB
:104F800066FF2389324629463846FFF72DFFE18820
:104F90003846BDE8F0411BE710B50A884B88CC883D
:104FA0001A438B8823431A430B891A434B898989F7
:104FB0001A430A43A0F8442010BD4FF6FF718180C8
:104FC00000210180C1804180017270470021018071
:104FD00041808180C180018141818181C18170478F
:104FE00000210180418001228280C18001817047BF
:104FF0000021018041808180C180018141818181C6
:105000007047002904D0018841F0010101807047F8
:10501000018821F0010101807047002905D030F896
:10502000441F41F400410180704730F8441FC1F330
:105030000E0101807047002A03D082890A438281D1
:10504000704782898A438281704781827047114309
:10505000A0F848107047002A03D082890A43828151
:10506000704782898A4382817047018921F0070154
:1050700001817047028922F070020A430281704761
:1050800000B503461846FFF7F5FF188940F0070002
:10509000188100BD70B50D4604461146602D0CD038
:1050A00001222046FFF7DBFE29462046FFF7E2FFFC
:1050B000208940F00700208170BD01222046FFF7C3
:1050C00093FEF1E730B50489E4B24FF6FF7505EAC7
:1050D000032313430B432343038130BD10B5044620
:1050E0002046FFF7EFFF208920F0070040F007007F
:1050F00020F0700040F07000208110BD002C0140B5
:10510000003401400004004000080040000C004052
:1051100010B504462046FFF7D5FF208940F48040B3
:105120002081EAE7018582827047028822F07002BE
:105130000A430280704770B50589048B068C25F000
:1051400007050D434FF6FC410C4040F201110C43A2
:1051500026F022064FF6FF7101EA03111143314395
:1051600005810483018470BD028B22F070020A4322
:1051700002837047028B22F4E0424FF6FF7303EA8A
:105180000121114301837047828B22F070020A4390
:1051900082837047828B22F4E0424FF6FF7303EA6A
:1051A0000121114381837047002904D0018841F017
:1051B000800101807047018821F0800101807047E3
:1051C000002904D0818841F00401818070478188E2
:1051D00021F0040181807047002904D0818841F0CA
:1051E000080181807047818821F008018180704723
:1051F000002904D0818841F00101818070478188B5
:1052000021F0010181807047028B22F008020A43DD
:1052100002837047028B22F400624FF6FF7303EAA9
:105220000121114301837047828B22F008020A4357
:1052300082837047828B22F400624FF6FF7303EA89
:105240000121114381837047028B22F004020A433B
:1052500002837047028B22F480624FF6FF7303EAE9
:105260000121114301837047828B22F004020A431B
:1052700082837047828B22F480624FF6FF7303EAC9
:105280000121114381837047028B22F080020A437F
:1052900002837047028BC2F30E024FF6FF7303EADC
:1052A0000121114301837047828B22F080020A435F
:1052B00082837047828BC2F30E024FF6FF7303EABC
:1052C0000121114381837047028C22F002020A43BC
:1052D00002847047028C22F008020A43028470475D
:1052E000028C22F020024FF6FF7303EA01111143F2
:1052F00001847047028C22F080024FF6FF7303EAAC
:105300000111114301847047028C22F400724FF6A0
:10531000FF7303EA0121114301847047028C22F4D8
:1053200000624FF6FF7303EA0121114301847047C5
:10533000028C22F400524FF6FF7303EA013111434D
:105340000184704710B501238B40048C9C43048476
:10535000038C8A4013430384CFE610B504238B40AB
:10536000048C9C430484038C8A4013430384C4E666
:1053700030B500F1180301248C40058CA543058449
:10538000002911D008290FD0091FC1F34E0018447D
:10539000016821F4E041016001684FF6FF7303EA00
:1053A00002221143016030BD03EB5100016821F07E
:1053B0007001016001681143016030BD002904D013
:1053C000018841F0020101807047018821F002014B
:1053D00001807047002904D0018841F00401018058
:1053E0007047018821F0040101807047002904D032
:1053F000818841F0800181807047818821F080019F
:1054000081807047028822F00802028002880A43E5
:1054100002807047828822F07002828082880A436C
:1054200082807047028922F00702028102890A43C2
:1054300002817047028922F08002028102890A43B8
:1054400002817047818470478185704781867047EB
:105450000187704781877047A0F840107047028825
:1054600022F44072028002880A4302807047808ED4
:105470007047008F7047808F7047B0F840007047CA
:10548000808C7047008D704702460020128A0A42C5
:1054900000D001207047C9430182704702460020B6
:1054A000138A0B4092890A40002B02D0002A00D0B8
:1054B00001207047C9430182704700F10801416033
:1054C0004FF0FF328260C1600161002101607047CE
:1054D00000210161704742684A6093688B6093685D
:1054E0005960916008610168491C0160704730B5DE
:1054F0000C68621C02D000F1080202E0026904E0BC
:105500001A4653681D68A542FAD953684B609960E2
:105510008A60516008610168491C016030BD016901
:10552000D0E901329A60D0E901235A604A68824288
:1055300001D182684A60002202610868401E08604A
:105540007047000070B504460D46002C05D140F2AE
:105550001B12F3A1F7A002F077FC02F0B7FAD4E92E
:105560000F20216802FB001161600021A163216806
:10557000A160E06B2268216C401E00FB0121E1600C
:105580004FF0FF3084F8440084F8450004F1100027
:105590004DB1FFF792FF04F12400FFF78EFF02F0F8
:1055A000AFFA012070BD21690029F8D001F0C5FBD8
:1055B0000028F4D0E3494FF080500860BFF34F8FCC
:1055C000BFF36F8FEBE770B51D46049C00290BD02D
:1055D0002260E063216401212046FFF7B3FF84F8D5
:1055E00050500020A06470BD2460F2E7F8B5054675
:1055F0000E461746002D05D14FF4C472C8A1CDA0A8
:1056000002F022FC86B105FB06F0543002F035FBB7
:1056100004463CB104F154023B463146284600940E
:10562000FFF7D1FF2046F8BD0020EEE72DE9F0415D
:10563000044617460026A56B226C002A10D0C7B17D
:10564000E06802F02AFDE168206C091AE160226836
:10565000914202D26168081AE060022F16D017E06A
:105660002068A8B9606801F080FC064600206060F0
:105670000EE0A06802F011FD216CA0680844A06053
:105680006168884204D32068A06001E005B16D1E06
:105690006D1CA5633046BDE8F0812DE9F3410F464E
:1056A0000098846C0026002C05D140F6CE129CA1F7
:1056B000A0A002F0C9FBA06BE16B884205D340F6C5
:1056C000CF1297A19BA002F0BFFBA06BE16B8842B9
:1056D0000CD294F945503A4669462046FFF7A6FF9A
:1056E0000646681C05D06D1C84F845503046BDE860
:1056F000FC81606A0028F9D004F1240001F01DFB50
:105700000028F3D00126F1E72DE9F041044602F02C
:10571000DDF994F9455004F1240613E0A06C38B18A
:1057200000212046FFF7B9FF50B101F0C2FB07E0AE
:10573000606A48B1304601F000FB08B101F0B9FBE6
:105740006D1E6DB2002DE9DC4FF0FF3684F8456028
:1057500002F0D6F902F0BAF994F9445004F11007B6
:1057600009E0206948B1384601F0E7FA08B101F0D4
:10577000A0FB6D1E6DB2002DF3DC84F84460BDE823
:10578000F04102F0BDB910B5044602F09FF9A06BDC
:10579000E16B884201D1012400E0002402F0B0F95D
:1057A000204610BD2DE9FF4782B004468A46984640
:1057B0000025002C05D140F2D92259A15DA002F0AC
:1057C00043FBBAF1000F07D1206C28B140F2DA2276
:1057D00053A158A002F038FBB8F1020F08D1E06BDA
:1057E000012805D040F2DB224DA152A002F02CFB93
:1057F00001F070FB38B9049828B140F2DE2248A1CC
:105800004CA002F021FB4FF000094FF080564D4FA5
:1058100002F05CF9A06BE16B884206D3B8F1020F8D
:1058200003D0049860B37DB333E04246514620462E
:10583000FFF7FCFEA16C51B141462046FFF72DFF5A
:10584000C0B13E60BFF34F8FBFF36F8F12E0616A4C
:1058500051B104F1240001F070FA58B13E60BFF379
:105860004F8FBFF36F8F05E020B13E60BFF34F8FC6
:10587000BFF36F8F02F044F9012006B0BDE8F08756
:1058800002F03EF90020F8E7FFE7684601F0C7FAAA
:10589000012502F035F900F054FE02F017F994F9F1
:1058A0004400401C01D184F8449094F94500401C08
:1058B00001D184F8459002F023F904A9684601F06B
:1058C000C0FA30B12046FFF71FFF00F08EFD002028
:1058D000D3E72046FFF757FF88B104F11000049981
:1058E00001F0BEF92046FFF70FFF00F07EFD002813
:1058F0008ED13E60BFF34F8FBFF36F8F88E7204696
:10590000FFF702FF00F071FD82E700281CD00021A4
:1059100041600160C16000231A46194642E7000059
:105920002E2E5C4672656552544F535C71756575D9
:10593000652E63004572726F723A25732C25640DD3
:105940000A00000004ED00E0704710B50246002197
:105950000120FFF74BFE04462046FFF7D6FF204606
:1059600010BD10B50446002C07D140F24122AFF221
:105970005001AFF2400002F067FA01F0A8FA616846
:1059800088420BD1E068401EE06028B900231A4627
:1059900019462046FFF706FF012010BD002010BD6C
:1059A00010B5044602F092F8A06B20B1002402F07A
:1059B000A7F8204610BD0124F9E730B40B46026C6D
:1059C000002A0CD0C1681144C1604468A14201D3CF
:1059D0000168C160C16830BC184602F05EBB30BCD3
:1059E00070472DE9FF4F83B004468A469B46002648
:1059F000002C07D140F2DC42AFF2DC01AFF2CC0068
:105A000002F022FABAF1000F09D1206C38B140F24D
:105A1000DD42AFF2F401AFF2E40002F015FA01F05A
:105A200059FA48B9059838B14FF49C62AFF2101199
:105A3000AFF2001002F008FA4FF000094FF0805763
:105A4000DFF8548602F042F8A56B95B3E66851463C
:105A50002046FFF7B2FFBBF1000F13D0E660606A8B
:105A600050B104F1240001F068F928B1C8F80070C1
:105A7000BFF34F8FBFF36F8F02F042F8012007B0E2
:105A8000BDE8F08F6D1EA563206810B901F025FBFD
:105A9000606020690028EFD004F1100001F04DF99A
:105AA0000028E9D0C8F80070BFF34F8FBFF36F8FA5
:105AB000E2E7FFE7059808B126B107E002F020F819
:105AC0000020DCE701A801F0AAF9012602F018F88D
:105AD00000F037FD01F0FAFF94F94400401C01D1B9
