:020000040800F2
:1000000050330020250E00088D0200088F020008E2
:100010009102000893020008950200080000000009
:10002000000000000000000000000000A501000822
:100030009702000800000000E9010008310C0008E8
:100040003F0E00083F0E00083F0E00083F0E00085C
:100050003F0E00083F0E00083F0E00083F0E00084C
:100060003F0E00083F0E00083F0E00083F0E00083C
:100070003F0E00083F0E00083F0E00083F0E00082C
:100080003F0E00083F0E00083F0E00083F0E00081C
:100090003F0E00083F0E00083F0E00083F0E00080C
:1000A0003F0E00083F0E00083F0E00083F0E0008FC
:1000B000E50800083F0E00083F0E00083F0E00084C
:1000C0003F0E00083F0E00083F0E00083F0E0008DC
:1000D0003F0E0008B90D00083F0E00083F0E000853
:1000E0003F0E00083F0E00083F0E000800F002F827
:1000F00000F048F80AA090E8000C82448344AAF17A
:100100000107DA4501D100F03DF8AFF2090EBAE877
:100110000F0013F0010F18BFFB1A43F0010318473B
:10012000B8550000D8550000103A24BF78C878C1EF
:10013000FAD8520724BF30C830C144BF04680C60ED
:10014000704700000023002400250026103A28BF35
:1001500078C1FBD8520728BF30C148BF0B60704739
:10016000642904F0A586752904F0A286632904F0A9
:10017000F087732904F0F587002070471FB51FBD75
:1001800010B510BD05F083F81146FFF7F7FF00F03A
:1001900055F805F0A1F803B4FFF7F2FF03BC00F037
:1001A000B5FD0000224B19680868B0E8F00F80F335
:1001B0000988BFF36F8F4FF0000080F311884EF075
:1001C0000D0E70470000000006480068006880F3CC
:1001D000088862B661B6BFF34F8FBFF36F8F00DF41
:1001E00000BF00BF08ED00E0EFF30980BFF36F8FA1
:1001F0000F4B1A6820E9F00F106008B54FF050005F
:1002000080F31188BFF34F8FBFF36F8F03F094FA21
:100210004FF0000080F31188BDE8084019680868B5
:10022000B0E8F00F80F30988BFF36F8F704700BF0D
:1002300044000020EFF3058070470000114801F0F2
:1002400084F8104810490068884200D0FEE74FF457
:10025000407000F007FE00F0F5FC4FF4E13000F0D4
:100260005FFD00F0D3F800F067FC00F0E5FA00F065
:1002700059FB00F08EFC00F0C1FB00F061F903F0C7
:10028000A9FBFEE7B800002000A24A047047FEE781
:10029000FEE7FEE7FEE770470CB5002201920092F0
:1002A0005248016841F4803101604FF4A063016855
:1002B00001F4003100910199491C0191009911B993
:1002C00001999942F3D10168890302D50121009176
:1002D00000E000920099012930D145490A6842F0B6
:1002E00010020A600A6822F003020A600A6842F0FB
:1002F00002020A604168416041684160416841F41E
:1003000080614160416821F47C114160416841F4A1
:10031000E8114160016841F0807101600168890164
:10032000FCD5416821F003014160416841F00201C0
:1003300041604168C1F381010229FAD10CBDABE7EC
:1003400010B52A48016841F0010101604168294A5D
:10035000114041600168284A11400160016821F4A0
:1003600080210160416821F4FE0141604FF41F01CA
:100370008160FFF7E4FF21494FF00060086010BD85
:1003800010B51A4A506800F00C011D4B1D48002999
:100390000ED004290ED008290ED003605168194AE6
:1003A000C1F30311121D515C0268CA40026010BD06
:1003B0000360F3E70360F1E7516801F470115368DB
:1003C00003F48033022404EB914133B153689B035F
:1003D00007D50D4B59430160E0E70B4B59430160D2
:1003E000DCE7074B59430160D8E7000000100240EA
:1003F000002002400000FFF8FFFFF6FE08ED00E0DD
:1004000000127A000000002000093D0038B50121EB
:10041000102000F0F2FF4FF40054ADF8004010201F
:100420008DF8030003208DF80200054D694628462B
:1004300000F0DDFD2146284600F048FE38BD0000F2
:10044000001001400EB503F003FB0290434D444CF5
:1004500003F0FEFA0290286800F10A018A1ECDE935
:100460000021831D021D811C00F0E6FAB4F9001082
:100470003CA004F09FFC0A2000F01BFCB4F9021021
:100480003BA004F097FC0A2000F013FCB4F9041020
:100490003AA004F08FFC0A2000F00BFCB4F906101F
:1004A00039A004F087FC0A2000F003FCB4F908101E
:1004B00039A004F07FFC0A2000F0FBFBB4F90A101D
:1004C00039A004F077FC0A2000F0F3FB642102A8B5
:1004D00003F016F8BCE708B503F0BAFA0090364C02
:1004E00003F0B6FA0090D4F8B401C043C4F8B401E4
:1004F0006421684603F004F8F2E77CB504F0C0FA22
:1005000016480324001DCDE900404FF480750023F8
:100510002A462AA1AFF2410002F04BFE0F482A46BC
:100520000830CDE90040002327A1AFF2E70002F038
:1005300040FE002002F086FEBDE87C4004F0BABA1E
:100540001CB500200221CDE90010CA01034621A1FB
:10055000AFF2590002F02DFE1CBD00001400002077
:10056000CC00002041636358203D2025640D0A0023
:1005700041636359203D2025640D0A004163635A9D
:10058000203D2025640D0A004779726F58203D20D8
:1005900025640D0A000000004779726F59203D2044
:1005A00025640D0A000000004779726F5A203D2033
:1005B00025640D0A00000000000022424C65645FC3
:1005C0005461736B00000000494D555F5461736BBB
:1005D0000000000073746172745F7461736B0000DB
:1005E00008B50121082000F008FF4FF44070ADF875
:1005F000000014208DF8030003208DF802006946E6
:100600008B4800F0F4FC08BD1E20401EC0B200283C
:10061000FBD1704741F28830401E0028FCD1704762
:1006200000B583484FF400711030016082150260FC
:10063000FFF7EAFF7E4B083318687D4A14321160D9
:10064000FFF7E2FF1868800501D5012000BD1160A9
:10065000FFF7DAFF002000BD00B575494FF4807345
:1006600014310B60FFF7D0FF4FF400720A60FFF700
:10067000CBFF6F4910310B60FFF7C6FF0A605DF8D2
:1006800004EBC1E700B56A494FF4807214310A6087
:10069000FFF7BAFF4FF400700860FFF7B5FF64483A
:1006A00010300260FFF7B0FF0A605DF804EBABE7C3
:1006B00000B55F4A4FF4807114321160FFF7A4FF58
:1006C0005B4B4FF4007010331860FFF79DFF19600B
:1006D000FFF79AFF11605DF804EB95E700B5544A07
:1006E0004FF4807114321160FFF78EFF504B4FF4BE
:1006F000007010331860FFF787FF1960FFF784FF61
:100700004B4808300068800504D51160FFF77CFF76
:10071000012000BD1160FFF777FF002000BD70B51C
:1007200002460821424B8C0114334D011E1F0EE07E
:100730001D60FFF769FF100601D5346000E01C6002
:100740005006020EFFF760FF3560FFF75DFF491EA0
:10075000C9B2EDD21D6070BD70B508220021344CC5
:10076000900110342060324E4310251D08360CE0F5
:100770004806010E2B60FFF747FF2360FFF744FF99
:100780003068800501D541F00101521ED2B2EFD28E
:100790002B60084670BD70B506460C461546FFF73F
:1007A0003FFFA8B13046FFF7BAFFFFF797FF88B1C8
:1007B0002046FFF7B4FFFFF791FF2846FFF7AFFF92
:1007C000FFF78CFFFFF748FFFFF724FF002070BD05
:1007D000012070BDFFF740FF012070BD30B5044619
:1007E0000D46FFF71DFFD8B12046FFF798FFFFF732
:1007F00075FFB8B12846FFF792FFFFF76FFFFFF7CD
:100800000FFF641CE0B2FFF78AFFFFF767FFFFF7F7
:10081000A3FF0446FFF74CFFFFF71EFF204630BD45
:10082000012030BDFFF718FF02490120087030BDDC
:10083000000C01402000002030B587B001210820C5
:1008400000F0DBFD0121C80200F0D7FD48208DF843
:100850001B00C020ADF8180003208DF81A0006A96F
:100860002D4800F0C4FB0024ADF81240ADF80E4056
:100870004FF6FF70ADF81000ADF80C408DF8144045
:10088000264D03A9284601F0C5F8684601F082FB11
:10089000ADF800400F24ADF808406946284601F045
:1008A000E7FA0421ADF80010ADF808406946284683
:1008B00001F0DEFA00231A460321284601F015FC58
:1008C0000121284601F077FB07B030BD70B5134D0C
:1008D000284601F0AFFD04B20021284601F08CFD4E
:1008E000204670BD10B501218C07204601F0B0FDF7
:1008F000002810D0FFF7EAFFC0EB00108000C117FE
:1009000000EB51700649C00808802046BDE8104041
:10091000012101F0A9BD10BD000C014000080040FC
:100920002200002008B54FF47040ADF80000102000
:100930008DF8030003208DF8020069462D4800F071
:1009400056FB08BD01462C4801F05EBD70B54FF462
:100950000041284C4D10002804D001280AD002285C
:1009600010D016E0204600F0B3FB2946204600F0E8
:10097000AFFB0EE0204600F0A9FB2946204600F020
:10098000A7FB06E0204600F0A3FB2946204600F026
:100990009DFB4FF4FA70BDE87040D3E7014616485E
:1009A00001F034BD70B54FF40051124C4D100028C9
:1009B00004D001280AD0022810D016E0204600F00A
:1009C00087FB2946204600F083FB0EE0204600F01E
:1009D0007DFB2946204600F07BFB06E0204600F028
:1009E00077FB2946204600F071FB4FF4FA70BDE812
:1009F0007040D3E7000C01400004004010B5FFF741
:100A0000EFFD00226B21D020FFF7C5FE0722192140
:100A1000D020FFF7C0FE06221A21D020FFF7BBFE30
:100A200018221B21D020FFF7B6FE01221C21BDE8B1
:100A30001040D020FFF7AFBE2DE9F0478246DDE938
:100A40000878894615461E463B21D020FFF7C6FE92
:100A500004463C21D020FFF7C1FE40EA042000B24A
:100A6000A42490FBF4F0AAF800003D21D020FFF769
:100A7000B5FE82463E21D020FFF7B0FE40EA0A20B4
:100A800000B290FBF4F0A9F800003F21D020FFF75E
:100A9000A5FE81464021D020FFF7A0FE40EA0920B4
:100AA00000B290FBF4F028804321D020FFF796FE9F
:100AB00004464421D020FFF791FE40EA042000B212
:100AC00004F09FFD1B4D4FF0663422462B4604F088
:100AD00011FC04F067FD30804521D020FFF77EFE39
:100AE00006464621D020FFF779FE40EA062000B2F4
:100AF00004F087FD22462B4604F0FCFB04F052FD77
:100B000038804721D020FFF769FE06464821D020D3
:100B1000FFF764FE40EA062000B204F072FD2246B0
:100B20002B4604F0E7FB04F03DFDA8F80000BDE80B
:100B3000F0870000666630401FB50121084600F0CE
:100B400067FC1C208DF8000000248DF80140012076
:100B50008DF80300684600F08AF940F2E730ADF8FE
:100B6000080040F2CF20ADF80400ADF80A40ADF81F
:100B700006404FF0804401A9204600F04BFF0122BF
:100B80001146204601F031FA0121204601F013FA06
:100B90001FBD30B589B00121082000F02EFC0121D5
:100BA000022000F035FC18208DF8230003208DF87A
:100BB0002200ADF8200008A91B4800F018FA40F206
:100BC000E730ADF818004720ADF814000024ADF868
:100BD0001A40ADF81640154D05A9284600F01AFF39
:100BE0006021ADF804100121ADF80610ADF80A40FF
:100BF000ADF80C4001A9284600F0BEFF08212846A8
:100C000001F0ECFA01A9284600F0F4FF082128467B
:100C100001F0EAFA0121284601F0D9F9012128461C
:100C200001F0C9F909B030BD000C014000040040DA
:100C300010B503F029F9012803D0BDE8104003F0F6
:100C40004CBF10BD10B5042000F054F92C482D49BC
:100C50002D4A0068B0FBF1F31370B0FBF1F14FF4D3
:100C60007A704143012050804FF0E020026942F049
:100C7000020202614161016941F00101016110BD9F
:100C800070B500214FF0E0256C691F4A127850437F
:100C9000AB69AA699A42FCD003D2A3EB02031944C0
:100CA00003E0A4EB02063344194413468142F0D317
:100CB00070BD70B5044603F0E7F801280CD0124D62
:100CC0006888844203D3B4FBF0F002F061FC6888CA
:100CD000B4FBF0F100FB11444FF47A706043BDE8BF
:100CE0007040CDE770B5054600244FF47A7603E0F6
:100CF0003046FFF7C5FF641CAC42F9D370BD00005D
:100D00000000002040420F002400002070474149AD
:100D10000A885206FCD53F4AC1B2121D11807047A5
:100D200070B586B00546012144F2040000F065FB71
:100D30004FF40070ADF8140003248DF8164018210C
:100D40008DF81710344E05A9304600F050F93115D2
:100D5000ADF8141004218DF8171005A9304600F0E5
:100D600046F925208DF800008DF801408DF80240ED
:100D700001208DF80300684600F079F80195002005
:100D8000ADF80800ADF80A00ADF80C00ADF81000A1
:100D90000C20ADF80E001F4C01A9204600F0CCFB42
:100DA000012240F22551204600F04DFC0121204651
:100DB00000F03DFC06B070BD70B5164C40F22551F8
:100DC000204600F00DFD00280ED0204600F094FCD7
:100DD000C1B2124A1088030406D444044FF0000341
:100DE00007D50A2901D0138070BD40F4004010805F
:100DF00070BD0D290AD00A4DC0F30D042955401CC1
:100E000080B21080C728F3D9138070BD40F48040B1
:100E1000108070BD0038014000080140280000200B
:100E2000D80000200948804709480047FEE7FEE750
:100E3000FEE7FEE7FEE7FEE7FEE7FEE7FEE7FEE78A
:100E400004480549054A064B704700004103000865
:100E5000ED000008502D002050330020502F0020BE
:100E6000502F00202A4908432A490860704770B56E
:100E70000F23C27801260178002A1ED0254A126865
:100E800002F4E062C2F5E062120AC2F10404D34047
:100E90004578A54082781A402A43120101F1E021E9
:100EA00081F80024007800F01F018E404009800086
:100EB00000F1E020C0F8006170BD01F01F00864025
:100EC0004809800000F1E020C0F8806170BD124A3E
:100ED000114001430F48001F016070470D4A121D69
:100EE000002903D0116801431160704711688143E4
:100EF000116070474FF0E021042804D0086920F009
:100F0000040008617047086940F0040008617047F8
:100F10000000FA050CED00E080FFFF1F10B59C49B2
:100F2000884209D10121042000F07DFA0021BDE8AA
:100F30001040042000F077BA9649884209D1012177
:100F4000082000F070FA0021BDE81040082000F0F1
:100F50006ABA9149884209D10121102000F063FA50
:100F60000021BDE81040102000F05DBA8B49884296
:100F700009D10121202000F056FA0021BDE81040DF
:100F8000202000F050BA8649884209D10121402032
:100F900000F049FA0021BDE81040402000F043BABB
:100FA0008049884209D10121802000F03CFA0021CB
:100FB000BDE81040802000F036BA7B4988420AD153
:100FC00084150121204600F02EFA2046BDE810408D
:100FD000002100F028BA10BD10B50121084600F02C
:100FE00022FA0021BDE81040012000F01CBA2DE9D2
:100FF000F0410022CC7804F00F03E40601D58C7890
:1010000023430C784FF00F0714F0FF0F4FF0010C43
:101010001CD005680CFA02F40E882640A64211D1B5
:10102000960007FA06F825EA080503FA06F848EAE2
:101030000505CE78282E02D0482E02D002E0446169
:1010400000E00461521C082AE4D305600A88FF2AE4
:101050001ED94568002202F108060CFA06F40E8833
:101060002640A64210D1960007FA06F825EA0805A0
:1010700003FA06F848EA0505CE78282E00D1446127
:10108000CE78482E00D10461521C082AE3D3456073
:10109000BDE8F0814FF6FF710180022181700421CB
:1010A000C17070470246002092680A4200D00120B9
:1010B0007047806880B2704702460020D2680A42BA
:1010C00000D001207047C06880B27047016170474E
:1010D00041617047002A01D001617047416170474A
:1010E000C160704741F480328261816182618169AF
:1010F0008069704710B52D4B1A684FF680742240F6
:1011000042EA00100843186010BD2949C8617047C1
:10111000F0B5264C002801DAE36900E06368C0F30B
:101120000346420D120185B2C0F301579540032FCB
:1011300007D0C2020CD50322B240934343F0706241
:1011400009E023F07062636823F07063636002E07B
:10115000AB4343F0706201B12A43002801DAE26137
:10116000F0BD6260F0BD10B58A07120F0F239340E7
:1011700021F003040D4921448C689C438C608B68EA
:10118000904003438B6010BD0949DC310860704713
:1011900000080140000C0140001001400014014013
:1011A00000180140001C01400020014000000140E7
:1011B00000002042B448016841F00101016041682B
:1011C000B24A114041600168B14A114001600168B2
:1011D00021F480210160416821F4FE0141604FF457
:1011E0001F0181607047A8490A6822F480320A60B2
:1011F0000A6822F480220A60B0F5803F07D0B0F57B
:10120000802F03D1086840F4A02008607047086868
:1012100040F48030086070470346002059099A4A1C
:1012200001290AD002290AD0516A03F01F020123C2
:1012300093400B4200D0012070471168F5E7116A16
:10124000F3E718B5002000904FF4A0643120FFF7B9
:10125000E3FF0099491C00910099A14201D00028A8
:10126000F4D03120FFF7D8FF08B1012018BD0020CD
:1012700018BD854A116821F0F80141EAC0001060EC
:1012800070478449086070477F4B5A6822F47C128B
:1012900008431043586070477E49086670477A4A91
:1012A000516821F00301014351607047764840685E
:1012B00000F00C007047744A516821F0F0010143BE
:1012C00051607047704A516821F4E06101435160F8
:1012D00070476D4A516821F4605141EAC000506086
:1012E0007047694A002903D0517A0143517270470F
:1012F000517A8143517270476649D831086070470E
:10130000614A516821F440410143516070475E4990
:10131000002220310A7001F82029012805D0042874
:1013200002D1052081F820007047012081F82000BB
:10133000704759490860704753490A6A02430A6274
:101340007047554944390860704710B54E4A516896
:1013500001F00C01514B002927D0042927D008297E
:1013600027D00360516801F0F00109094C4B5C5C27
:101370000168E1404160546804F4E064240A1C5DA3
:1013800021FA04F48460546804F46054E40A1B5D98
:10139000D940C160526802F44042920B404B1B1F7F
:1013A0009A5CB1FBF2F1016110BD0360DAE7036002
:1013B000D8E7516801F47011536803F480330224B4
:1013C00004EB914133B153689B0307D5354B594327
:1013D0000160C7E7334B59430160C3E72F4B5943C3
:1013E0000160BFE7284A002903D0516901435161D8
:1013F00070475169814351617047234A002903D0E6
:10140000916901439161704791698143916170478E
:101410001D4A002903D0D1690143D1617047D169C8
:101420008143D1617047184A002903D0D168014334
:10143000D1607047D1688143D1607047124A00295A
:1014400003D0116901431161704711698143116132
:10145000704711494039086070470E49C8647047A9
:101460000949C87170470848416A41F0807141627A
:10147000704701460020044A92680A4200D00120C9
:101480007047014988727047001002400000FFF861
:10149000FFFFF6FE000042428004424200127A0042
:1014A0003400002000093D0010B5E14988420AD10E
:1014B00001218C032046FFF7B6FF2046BDE810400F
:1014C0000021FFF7B0BFDB4988420AD101214C045B
:1014D0002046FFF7B3FF2046BDE810400021FFF78C
:1014E000ADBFD54988420AD101218C042046FFF7BF
:1014F000A5FF2046BDE810400021FFF79FBFCF4960
:1015000088420AD10121CC042046FFF797FF2046EC
:10151000BDE810400021FFF791BFC94988420AD1B8
:1015200001210C052046FFF789FF2046BDE8104049
:101530000021FFF783BF10BD30B585B004460D46CE
:10154000208A4CF6FF710840E98801432182A08976
:101550004EF6F3110840A9882A8911436A8902438B
:101560001143A181A08A4FF6FF410840A989014398
:10157000A1826846FFF7E9FEAD48844201D1039895
:1015800000E00298A189090408D500EBC00101EB35
:10159000001029684900B0FBF1F007E000EBC00142
:1015A00001EB001029688900B0FBF1F06422B0FB68
:1015B000F2F109010B096FF018056B4300EB830092
:1015C000A3891D044FF0320307D503EBC000B0FB25
:1015D000F2F000F00700084306E003EB0010B0FB58
:1015E000F2F000F00F000843208105B030BD4FF449
:1015F0001651016000218180C18001810C2242814D
:101600008181704710B5038A4FF2FF0213400A88A8
:101610004C8822438C88C9880C4322431A43028297
:1016200010BD0021018041808180C1807047002968
:1016300004D0818941F4005181817047818921F46E
:1016400000518181704710B540F66A13C1F342130F
:1016500001F01F040121A140012B07D0022B07D06C
:1016600014303AB102680A43026010BD0C30F8E74A
:101670001030F6E702688A43026010BD002A03D0EA
:10168000828A0A4382827047828A8A4382827047B2
:10169000028A22F00F020282028A0A430282704703
:1016A000828922F40062828182890A4382817047A2
:1016B000002904D0818941F002018181704781892C
:1016C00021F0020181817047028A22F02002028209
:1016D000028A0A4302827047002904D0018A41F439
:1016E000804101827047018A21F480410182704764
:1016F000C1F30801818070478088C0F308007047FB
:10170000818941F0010181817047028BD2B202834D
:10171000028B42EA012101837047028B02F47F426F
:101720000283028B0A4302837047002904D0818A16
:1017300041F0200181827047818A21F0200181825D
:101740007047002904D0818A41F0100181827047DE
:10175000818A21F0100181827047002904D0818A9A
:1017600041F0080181827047818A21F0080181825D
:101770007047002904D0818941F40041818170477C
:101780008189C1F30E0181817047002904D0818ACB
:1017900041F4006181827047818A21F40061818275
:1017A0007047828A22F004028282828A0A438282FD
:1017B0007047002904D0818A41F00201818270477C
:1017C000818A21F00201818270470246002012883E
:1017D0000A4200D0012070478A05C9430180704742
:1017E00070B5002440F66A12C1F3421301F01F05E0
:1017F000012606FA05F2012B0CD0022B0DD0838AAC
:101800001340090A8E40008830400BB100B101241A
:10181000204670BD83891340F3E7038A1340F0E745
:1018200040F66A120A0A01219140C94301807047BB
:10183000003801400044004000480040004C004097
:101840000050004010B5FE4988420AD1C41401215D
:101850002046FFF7E8FD2046BDE810400021FFF7D5
:10186000E2BDB0F1804F0CD0F649884213D101217E
:101870000220FFF7E3FD0021BDE810400220FFF742
:10188000DDBD01210846FFF7D9FD0021BDE810406C
:101890000120FFF7D3BDEC49884209D10121042082
:1018A000FFF7CCFD0021BDE810400420FFF7C6BDC6
:1018B000E649884209D101210820FFF7BFFD002138
:1018C000BDE810400820FFF7B9BDE149884209D1C1
:1018D00001211020FFF7B2FD0021BDE810401020CB
:1018E000FFF7ACBDDB49884209D101212020FFF779
:1018F000A5FD0021BDE810402020FFF79FBDD6497F
:1019000088420AD1441401212046FFF78CFD20466D
:10191000BDE810400021FFF786BDD04988420AD1BA
:101920000121CC042046FFF77EFD2046BDE8104093
:101930000021FFF778BDCA4988420AD101210C0570
:101940002046FFF770FD2046BDE810400021FFF75C
:101950006ABDC44988420AD101214C052046FFF7DF
:1019600062FD2046BDE810400021FFF75CBDBE4986
:10197000884209D101214020FFF760FD0021BDE828
:1019800010404020FFF75ABDB849884209D10121D3
:101990008020FFF753FD0021BDE810408020FFF7B5
:1019A0004DBDB34988420AD1841501212046FFF775
:1019B00045FD2046BDE810400021FFF73FBDAD4981
:1019C00088420AD101210C042046FFF72CFD204655
:1019D000BDE810400021FFF726BDA74988420AD183
:1019E00001214C042046FFF71EFD2046BDE81040B3
:1019F0000021FFF718BDA14988420AD101218C04BA
:101A00002046FFF710FD2046BDE810400021FFF7FB
:101A10000ABD10BD30B50288894C8F4DA0420DD053
:101A2000A8420BD0B0F1804F08D0864B984205D029
:101A3000854B984202D0854B984203D122F0700327
:101A40004A881A43824B984206D0824B984203D070
:101A500022F44073CA881A4302808A8882850A88E1
:101A60000285A0420AD0A84208D0824A904205D0FE
:101A7000814A904202D0814A904201D1097A01867E
:101A80000121818230BD30B5028C22F00102028436
:101A9000028C8388048B24F0700424F003050C88E6
:101AA0002C4322F002020D8915434A882A43644DD3
:101AB000A8420BD0684DA84208D06E4DA84205D070
:101AC0006D4DA84202D06D4DA8420FD122F00805FD
:101AD0004A892A4322F004058A882A4323F4807322
:101AE00023F400738D891D43CB892B4383800483AA
:101AF000C9888186028430BD70B5028C22F0100244
:101B00000284028C8388048B24F4E04424F440761D
:101B10000D884FF6FF7404EA0525354322F02002B4
:101B20000E8904EA061616434A8804EA0212324372
:101B3000434EB04202D0484EB04217D122F080024C
:101B40004E8904EA0616164326F040068A8804EAFF
:101B50000212324323F4806323F400638E8904EA83
:101B600086061E43CB8904EA8303334383800583BF
:101B7000C9880187028470BD70B5028C22F480721E
:101B80000284028C8388848B24F0700424F0030484
:101B90000D88254322F400720E894FF6FF7404EA83
:101BA000062616434A8804EA02223243244EB042F3
:101BB00002D0294EB04217D122F400664A8904EAC5
:101BC0000222324322F480668A8804EA02223243E7
:101BD00023F4805323F400538E8904EA06161E432F
:101BE000CB8904EA0313334383808583C9888187C3
:101BF000028470BD70B5028C22F480520284058C80
:101C00008288838B23F4E04323F440760C884FF6DC
:101C1000FF7303EA0424344325F400550E8903EAD4
:101C200006362E434D8803EA05353543044EB0424F
:101C300002D0094EB04226D122F480468A891FE0A4
:101C4000002C01400004004000080040000C00404F
:101C5000001000400014004000340140004C0140DE
:101C6000005001400054014000180040001C00409A
:101C70000020004000400140004401400048014075
:101C800003EA8212324382808483C988A0F840101C
:101C9000058470BD828B22F440628283828B4FF672
:101CA000FF7303EA01210A4382837047F0B5048C75
:101CB00024F480540484868B048C4FF6FF7505EA67
:101CC000013726F4734605EA0222324305EA03335C
:101CD0001343F74A90420ED0F64A90420BD0B0F12F
:101CE000804F08D0F44A904205D0F44A904202D086
:101CF000F34A904205D124F40051394341F4805114
:101D000004E024F402420A4342F4805183830184B4
:101D1000F0BD828B22F00C028283828B0A43828385
:101D20007047F0B5048C24F480740484858B048C93
:101D30004FF6FF7707EA012625F0F30507EA0313BC
:101D400013432B43DA4A90420ED0DA4A90420BD02A
:101D5000B0F1804F08D0D84A904205D0D74A90427F
:101D600002D0D74A904205D124F40071314341F4A6
:101D7000807104E024F420620A4342F4807183837A
:101D80000184F0BD028B22F440620283028B4FF685
:101D9000FF7303EA01210A4302837047F0B5048C04
:101DA00024F010040484068B048C4FF6FF7505EABA
:101DB000011726F4734605EA0333334305EA02228A
:101DC0001A43BB4B98420ED0BA4B98420BD0B0F19D
:101DD000804F08D0B84B984205D0B84B984202D0FB
:101DE000B74B984205D124F02001394341F010014E
:101DF00004E024F0A0030B4343F0100102830184AC
:101E0000F0BD028B22F00C020283028B0A43028394
:101E1000704770B5048C24F001040484058B048C95
:101E200025F0F3054FF6FF7606EA031313432B4321
:101E30009F4A90420ED09F4A90420BD0B0F1804F03
:101E400008D09D4A904205D09C4A904202D09C4ABC
:101E5000904205D124F002020A4342F0010104E05D
:101E600024F00A020A4342F001010383018470BD99
:101E700070B505460C468E48854209D08D4885428E
:101E800006D0B5F1804F03D08B48854200D08B48F7
:101E900020886188A288238958B1042811D0082895
:101EA00017D02846FFF702FFE1882846BDE87040BA
:101EB000F0E62846FFF7ADFFE1882846BDE8704010
:101EC0009FE72846FFF76AFFE1882846BDE8704093
:101ED00058E72846FFF725FFE1882846BDE870400F
:101EE00017E72DE9F04107460C46002501266188D9
:101EF000002900D10225A288012A00D102262088CB
:101F0000238988B13846FFF749FFE1883846FFF753
:101F100039FF2389324629463846FFF77AFFE188A0
:101F20003846BDE8F0416CE73846FFF772FFE188BC
:101F30003846FFF766FF2389324629463846FFF7C1
:101F40002DFFE1883846BDE8F0411BE710B50A884F
:101F50004B88CC881A438B8823431A430B891A4336
:101F60004B8989891A430A43A0F8442010BD4FF6D3
:101F7000FF71818000210180C18041800172704722
:101F80000021018041808180C18001814181818166
:101F9000C181704700210180418001228280C1807F
:101FA000018170470021018041808180C1800181D1
:101FB000418181817047002904D0018841F00101ED
:101FC00001807047018821F00101018070470029DC
:101FD00005D030F8441F41F400410180704730F8CB
:101FE000441FC1F30E0101807047002A03D082898B
:101FF0000A438281704782898A4382817047818245
:1020000070471143A0F848107047002A03D0828916
:102010000A438281704782898A438281704701899D
:1020200021F0070101817047028922F070020A4302
:102030000281704700B503461846FFF7F5FF18897F
:1020400040F00700188100BD70B50D4604461146EA
:10205000602D0CD001222046FFF7DBFE29462046EA
:10206000FFF7E2FF208940F00700208170BD0122C8
:102070002046FFF793FEF1E730B50489E4B24FF64E
:10208000FF7505EA032313430B432343038130BD4C
:1020900010B504462046FFF7EFFF208920F0070027
:1020A00040F0070020F0700040F07000208110BD6B
:1020B000002C0140003401400004004000080040B2
:1020C000000C004010B504462046FFF7D5FF2089DC
:1020D00040F480402081EAE70185828270470288CF
:1020E00022F070020A430280704770B50589048BA4
:1020F000068C25F007050D434FF6FC410C4040F2DD
:1021000001110C4326F022064FF6FF7101EA03117C
:102110001143314305810483018470BD028B22F099
:1021200070020A4302837047028B22F4E0424FF6AA
:10213000FF7303EA0121114301837047828B22F070
:1021400070020A4382837047828B22F4E0424FF68A
:10215000FF7303EA0121114381837047002904D0F2
:10216000018841F0800101807047018821F08001E1
:1021700001807047002904D0818841F004018180EA
:102180007047818821F0040181807047002904D0C4
:10219000818841F0080181807047818821F0080121
:1021A00081807047002904D0818841F0010181803D
:1021B0007047818821F0010181807047028B22F0F5
:1021C00008020A4302837047028B22F400624FF632
:1021D000FF7303EA0121114301837047828B22F0D0
:1021E00008020A4382837047828B22F400624FF612
:1021F000FF7303EA0121114381837047028B22F0B0
:1022000004020A4302837047028B22F480624FF675
:10221000FF7303EA0121114301837047828B22F08F
:1022200004020A4382837047828B22F480624FF655
:10223000FF7303EA0121114381837047028B22F06F
:1022400080020A4302837047028BC2F30E024FF6EC
:10225000FF7303EA0121114301837047828B22F04F
:1022600080020A4382837047828BC2F30E024FF6CC
:10227000FF7303EA0121114381837047028C22F02E
:1022800002020A4302847047028C22F008020A43C9
:1022900002847047028C22F020024FF6FF7303EA9B
:1022A0000111114301847047028C22F080024FF625
:1022B000FF7303EA0111114301847047028C22F479
:1022C00000724FF6FF7303EA012111430184704746
:1022D000028C22F400624FF6FF7303EA01211143DE
:1022E00001847047028C22F400524FF6FF7303EA18
:1022F000013111430184704710B501238B40048CD8
:102300009C430484038C8A4013430384CFE610B5B6
:1023100004238B40048C9C430484038C8A40134325
:102320000384C4E630B500F1180301248C40058C09
:10233000A5430584002911D008290FD0091FC1F336
:102340004E001844016821F4E041016001684FF635
:10235000FF7303EA02221143016030BD03EB510019
:10236000016821F07001016001681143016030BD16
:10237000002904D0018841F00201018070470188E2
:1023800021F0020101807047002904D0018841F04A
:10239000040101807047018821F004010180704729
:1023A000002904D0818841F08001818070478188B4
:1023B00021F0800181807047028822F008020280AB
:1023C00002880A4302807047828822F0700282806D
:1023D00082880A4382807047028922F007020281C4
:1023E00002890A4302817047028922F08002028139
:1023F00002890A4302817047818470478185704752
:10240000818670470187704781877047A0F8401028
:102410007047028822F44072028002880A430280D8
:102420007047808E7047008F7047808F7047B0F87C
:1024300040007047808C7047008D70470246002036
:10244000128A0A4200D001207047C94301827047B6
:1024500002460020138A0B4092890A40002B02D0CA
:10246000002A00D001207047C9430182704700F163
:10247000080141604FF0FF328260C16001610021BC
:102480000160704700210161704742684A609368AB
:102490008B6093685960916008610168491C016014
:1024A000704730B50C68621C02D000F1080202E0EF
:1024B000026904E01A4653681D68A542FAD95368B8
:1024C0004B6099608A60516008610168491C016035
:1024D00030BD0169D0E901329A60D0E901235A6028
:1024E0004A68824201D182684A600022026108681B
:1024F000401E08607047000070B504460D46002C71
:1025000005D140F21B12F3A1F7A002F053FC02F038
:10251000B7FAD4E90F20216802FB001161600021A5
:10252000A1632168A160E06B2268216C401E00FB62
:102530000121E1604FF0FF3084F8440084F8450049
:1025400004F110004DB1FFF792FF04F12400FFF7F2
:102550008EFF02F0AFFA012070BD21690029F8D08A
:1025600001F0C5FB0028F4D0E3494FF0805008602B
:10257000BFF34F8FBFF36F8FEBE770B51D46049C21
:1025800000290BD02260E063216401212046FFF77F
:10259000B3FF84F850500020A06470BD2460F2E7BF
:1025A000F8B505460E461746002D05D14FF4C47206
:1025B000C8A1CDA002F0FEFB86B105FB06F05430A9
:1025C00002F035FB04463CB104F154023B4631466F
:1025D00028460094FFF7D1FF2046F8BD0020EEE723
:1025E0002DE9F041044617460026A56B226C002A0F
:1025F00010D0C7B1E06802F0DAFCE168206C091A7B
:10260000E1602268914202D26168081AE060022FFC
:1026100016D017E02068A8B9606801F080FC064673
:10262000002060600EE0A06802F0C1FC216CA06890
:102630000844A0606168884204D32068A06001E07B
:1026400005B16D1E6D1CA5633046BDE8F0812DE916
:10265000F3410F460098846C0026002C05D140F60B
:10266000CE129CA1A0A002F0A5FBA06BE16B88425A
:1026700005D340F6CF1297A19BA002F09BFBA06B65
:10268000E16B88420CD294F945503A46694620469F
:10269000FFF7A6FF0646681C05D06D1C84F8455060
:1026A0003046BDE8FC81606A0028F9D004F12400BE
:1026B00001F01DFB0028F3D00126F1E72DE9F041E0
:1026C000044602F0DDF994F9455004F1240613E0C4
:1026D000A06C38B100212046FFF7B9FF50B101F0DE
:1026E000C2FB07E0606A48B1304601F000FB08B168
:1026F00001F0B9FB6D1E6DB2002DE9DC4FF0FF3625
:1027000084F8456002F0D6F902F0BAF994F9445021
:1027100004F1100709E0206948B1384601F0E7FAF2
:1027200008B101F0A0FB6D1E6DB2002DF3DC84F842
:102730004460BDE8F04102F0BDB910B5044602F0B6
:102740009FF9A06BE16B884201D1012400E00024D5
:1027500002F0B0F9204610BD2DE9FF4782B00446D3
:102760008A4698460025002C05D140F2D92259A16D
:102770005DA002F01FFBBAF1000F07D1206C28B159
:1027800040F2DA2253A158A002F014FBB8F1020F74
:1027900008D1E06B012805D040F2DB224DA152A008
:1027A00002F008FB01F070FB38B9049828B140F240
:1027B000DE2248A14CA002F0FDFA4FF000094FF0D4
:1027C00080564D4F02F05CF9A06BE16B884206D356
:1027D000B8F1020F03D0049860B37DB333E04246F2
:1027E00051462046FFF7FCFEA16C51B14146204600
:1027F000FFF72DFFC0B13E60BFF34F8FBFF36F8F68
:1028000012E0616A51B104F1240001F070FA58B18C
:102810003E60BFF34F8FBFF36F8F05E020B13E6086
:10282000BFF34F8FBFF36F8F02F044F9012006B062
:10283000BDE8F08702F03EF90020F8E7FFE76846C0
:1028400001F0C7FA012502F035F900F054FE02F05C
:1028500017F994F94400401C01D184F8449094F98C
:102860004500401C01D184F8459002F023F904A9E9
:10287000684601F0C0FA30B12046FFF71FFF00F0B4
:102880008EFD0020D3E72046FFF757FF88B104F103
:102890001000049901F0BEF92046FFF70FFF00F089
:1028A0007EFD00288ED13E60BFF34F8FBFF36F8F48
:1028B00088E72046FFF702FF00F071FD82E700285D
:1028C0001CD0002141600160C16000231A461946F6
:1028D00042E700002E2E5C4672656552544F535CF1
:1028E00071756575652E63004572726F723A257356
:1028F0002C25640D0A00000004ED00E0704710B5BF
:10290000024600210120FFF74BFE04462046FFF758
:10291000D6FF204610BD10B50446002C07D140F26A
:102920004122AFF25001AFF2400002F043FA01F051
:10293000A8FA616888420BD1E068401EE06028B9BF
:1029400000231A4619462046FFF706FF012010BD56
:10295000002010BD10B5044602F092F8A06B20B123
:10296000002402F0A7F8204610BD0124F9E730B496
:102970000B46026C002A0CD0C1681144C160446847
:10298000A14201D30168C160C16830BC184602F0A1
:102990000EBB30BC70472DE9FF4F83B004468A461A
:1029A0009B460026002C07D140F2DC42AFF2DC014E
:1029B000AFF2CC0002F0FEF9BAF1000F09D1206CA1
:1029C00038B140F2DD42AFF2F401AFF2E40002F0C0
:1029D000F1F901F059FA48B9059838B14FF49C6201
:1029E000AFF21011AFF2001002F0E4F94FF000095D
:1029F0004FF08057DFF8548602F042F8A56B95B38C
:102A0000E66851462046FFF7B2FFBBF1000F13D036
:102A1000E660606A50B104F1240001F068F928B161
:102A2000C8F80070BFF34F8FBFF36F8F02F042F80A
:102A3000012007B0BDE8F08F6D1EA563206810B9B6
:102A400001F025FB606020690028EFD004F1100040
:102A500001F04DF90028E9D0C8F80070BFF34F8F9E
:102A6000BFF36F8FE2E7FFE7059808B126B107E0F3
:102A700002F020F80020DCE701A801F0AAF9012605
:102A800002F018F800F037FD01F0FAFF94F9440065
:102A9000401C01D184F8449094F94500401C01D1B8
:102AA00084F8459002F006F805A901A801F0A3F901
:102AB00058B12046FFF702FE00F071FC2046FFF7F8
:102AC00049FF002898D00020B3E72046FFF742FFD7
:102AD000E0B1206830B901F0D3FF606801F0E0F99F
:102AE00001F0E8FF04F12400059901F093F8204675
:102AF000FFF7E4FD00F053FC00287FF47DAFC8F839
:102B00000070BFF34F8FBFF36F8F75E72046FFF75D
:102B1000D5FD00F044FC6FE770B504460D46002C6F
:102B200007D14FF41E72AFF25421AFF2442002F0ED
:102B300041F901F0A6F96368984204D1E068401CAD
:102B4000E060012070BD00232A4619462046FFF7A9
:102B500022FF0028F6D0E168491CE16070BD70B525
:102B600005460C46002D07D140F2BD22AFF29C2154
:102B7000AFF28C2002F01EF9AC4207D940F2BE221F
:102B8000AFF2B021AFF2A02002F014F9022200212E
:102B90002846FFF705FD002800D0846370BD2DE9AD
:102BA000F0470446894615469846002C07D140F266
:102BB0009F32AFF2E021AFF2D02002F0FBF8B9F182
:102BC000000F09D1206C38B14FF46872AFF2FC21CC
:102BD000AFF2EC2002F0EEF8B8F1020F0AD1E06B90
:102BE000012807D040F2A132AFF21831AFF208301D
:102BF00002F0E0F801F085FF5020EFF3118780F339
:102C00001188BFF34F8FBFF36F8FA06BE16B8842CA
:102C100006D3B8F1020F03D0002087F3118807E62E
:102C200094F94560424649462046FFF7D9FC701C9E
:102C300004D0761C84F845600120EEE7A06C0126E4
:102C400048B141462046FFF702FD0028F4D0002D90
:102C5000F2D02E60F0E7606A0028EDD004F1240085
:102C600001F045F80028E7D0002DE5D02E60E3E71D
:102C70002DE9F04104460D46002C07D140F23C42BC
:102C8000AFF2B031AFF2A03002F094F8206C38B15E
:102C90004FF48862AFF2C431AFF2B43002F08AF878
:102CA000206848B9606838B140F24542AFF2DC3183
:102CB000AFF2CC3002F07EF801F023FF5020EFF3AA
:102CC000118680F31188BFF34F8FBFF36F8FA16B15
:102CD000E06B884224D994F94500491CA163411C4A
:102CE00004D0401C84F8450001201AE0A06C0127A4
:102CF00048B100212046FFF7AAFC0028F4D0002D9F
:102D0000F2D02F60F0E7606A0028EDD004F12400D3
:102D100000F0EDFF0028E7D0002DE5D02F60E3E7BD
:102D2000002086F3118890E42DE9F0470446894697
:102D30009046002C07D14FF4B462AFF26841AFF275
:102D4000584002F037F8B9F1000F09D1206C38B1C2
:102D500040F2A152AFF28441AFF2744002F02AF87F
:102D600001F0CFFE5020EFF3118780F31188BFF3FD
:102D70004F8FBFF36F8FA66BF6B194F9445049465D
:102D80002046FFF7F4FD761EA663681C04D06D1C78
:102D900084F84450012010E020690028FAD004F1A2
:102DA000100000F0A4FF0028F4D0B8F1000FF1D01B
:102DB0000120C8F80000EDE7002087F3118837E50F
:102DC0002DE9F04104460F46002C07D140F2FC5299
:102DD000AFF20051AFF2F04001F0ECFF4FB9206CC0
:102DE00038B140F2FD52AFF21451AFF2045001F08D
:102DF000E1FF206C38B940F2FE52AFF22851AFF239
:102E0000185001F0D7FF01F07CFE5020EFF3118540
:102E100080F31188BFF34F8FBFF36F8FA06B38B172
:102E2000E66839462046FFF7A2FDE660012000E093
:102E3000002085F3118808E410B50446002C07D162
:102E400040F22F62AFF27451AFF2645001F0B2FF62
:102E500001F016FEA46B01F02DFE204610BD10B54A
:102E60000446002C07D140F24162AFF29851AFF214
:102E7000885001F09FFF01F003FED4E90E10441AC0
:102E800001F018FE204610BD10B50446002C07D1F5
:102E900040F25162AFF2C451AFF2B45001F08AFF78
:102EA000A06B10BD00216A4A02EBC1035B6883423C
:102EB00006D1002042F8310002EBC10148607047A2
:102EC000491C0829F0D3704710B50446002C07D1DF
:102ED00040F25D62AFF20461AFF2F45001F06AFFBC
:102EE0002046FFF7DFFF2046BDE8104001F006BF97
:102EF000C06C7047C164704790F85000704710B5BF
:102F00000446002C07D140F29372AFF23861AFF261
:102F1000286001F04FFFA06B08B1002010BD012018
:102F200010BD10B50446002C07D140F2BA72AFF2C2
:102F30005C61AFF24C6001F03DFFA06BE16B884239
:102F400001D1012010BD002010BD10B50022404B62
:102F500053F832401CB1521C082AF9D310BD43F873
:102F6000321003EBC201486010BD10B500240021EF
:102F7000374A02EBC1035B68834202D152F8314009
:102F800002E0491C0829F4D3204610BD70B5044660
:102F90000D46164601F074FD94F944304FF00000E0
:102FA0005B1C01D184F8440094F94510491C01D1FF
:102FB00084F8450001F07EFDA06B28B93246294611
:102FC00004F1240000F076FE2046BDE87040FFF7D3
:102FD00075BB00220421FFF7E3BA70B504460D4625
:102FE00001F04EFDA06C08B1002405E0A06B08B113
:102FF000002401E0A564012401F05CFD204670BDC1
:1030000010B50446A06C884201D0002010BDA06B12
:1030100008B1002010BD01F033FD0020A06401F0D4
:1030200049FD012010BD08B5002300930A466946FA
:10303000FFF7B1FC009808BD08B5002100910022FF
:103040006946FFF771FE009808BD000004ED00E03E
:10305000A001002070B50024FE4D04EB840005EBB8
:103060008000FFF704FA641C202CF6D3FA48FFF71F
:10307000FEF9F9481430FFF7FAF9F7482830FFF75E
:10308000F6F9F5483C30FFF7F2F9F3485030FFF716
:10309000EEF9F248F04941631431816370BD70B5B7
:1030A000044601F0EDFCED4DA868401CA8602868BE
:1030B00010B1686938B10CE02C60A868012808D10B
:1030C000FFF7C8FF05E02868E16AC06A884200D8B7
:1030D0002C60686A401C68626064E06A01212A69A9
:1030E000814011432961DB4900EB800001EB800046
:1030F000211DFFF7CAF901F0DDFC686900280CD03A
:103100002868E16AC06A884207D2D5494FF08050EA
:103110000860BFF34F8FBFF36F8F70BD2DE9F0478D
:103120008146DDE908580A9C0E4617469A46B900C2
:10313000A522206B01F080FF206B7F1E00EB870033
:1031400020F00707780705D040F22B32C5A1CAA0AE
:1031500001F030FE00202218315C82F83410315C1E
:1031600011B1401C1028F6D3002684F84360202DAE
:1031700000D31F25E562E5642665201DFFF782F96F
:1031800004F11800FFF77EF92461C5F12000A06169
:103190006462666584F8586052464946384601F0D4
:1031A00016FC2060B8F1000F01D0C8F80040BDE85F
:1031B000F0872DE9FF5F8146DDE90E788A461646E5
:1031C0009B46B00001F033FD054628000AD05C2084
:1031D00001F02DFD04460CB1256304E0284601F002
:1031E0008DFD00E000248CB10020CDE90240CDE946
:1031F00000785B46324651464846FFF78FFF20462F
:10320000FFF74DFF012004B0BDE8F09F4FF0FF3005
:10321000F9E79248416B0968002905D0416BC968FC
:10322000C9684968816270474FF0FF318162704719
:1032300010B50446206B01F061FD2046BDE810404A
:1032400001F05CBD70B5044601F01AFC834D04B971
:103250002C68201DFFF73DF958B9E06A7D4A00EB64
:10326000800152F8211021B9012181402869884349
:103270002861A06A18B104F11800FFF72AF9686AFA
:10328000401C68622868844208D17348211D3C3084
:10329000FFF7FBF86868401C686007E0A868401EFC
:1032A000A8602046FFF7C4FFFFF7B3FF01F002FC60
:1032B0006869002812D0286884420FD1286B28B191
:1032C00040F2654267A16CA001F074FD64494FF0C3
:1032D00080500860BFF34F8FBFF36F8F70BD2DE933
:1032E000F04100265D4F386B002808D0B869401CBB
:1032F000B861F86900B101263046BDE8F081FD688B
:103300006D1CFD608DB9786B006828B140F6D9124C
:1033100054A159A001F04EFD786BB96B7963B86385
:10332000386A401C3862FFF774FFB86ADFF82481FE
:1033300085420DD3786B006838B1786BC068C4687B
:10334000606885420ED2B86202E04FF0FF30B8628A
:103350003868C06A00EB800058F820000128C8D9FE
:103360000126C6E7201DFFF7B4F8A06A18B104F1E2
:103370001800FFF7AEF8E06A01213A698140114375
:10338000396100EB800008EB8000211DFFF77DF81C
:10339000E06A3968C96A8842CCD30126CAE72DE9B8
:1033A000F041002400272D4D286B002805D14FF453
:1033B000FD622CA130A001F0FDFC01F061FB286B47
:1033C000401E2863286BE8BBA868D8B3DFF8888064
:1033D000012608F128081DE0D8F80C00C46804F1A3
:1033E0001800FFF776F8201DFFF773F8E06A2A69E6
:1033F00006FA00F111432961164900EB800001EB48
:103400008000211DFFF741F8E06A2968C96A8842F7
:1034100000D3EE61D8F800000028DDD10CB1FFF731
:10342000F8FEAC6944B1FFF75AFF00B1EE61641ECB
:10343000002CF8D10020A861E86918B101273807ED
:10344000074900E004E00860BFF34F8FBFF36F8FC0
:103450001AE00000E0010020600400204400002089
:1034600004ED00E02E2E5C4672656552544F535CAD
:103470007461736B732E63004572726F723A2573B9
:103480002C25640D0A00000001F014FB384634E7D7
:103490002DE9F04104460F46FE4EF5683068001DE8
:1034A000FFF717F838B9306890F82C1001208840E1
:1034B000316981433161601C07D137B13168BDE8A2
:1034C000F041091DF448FEF7E0BF2C443068446029
:1034D000AC4206D23168B06B091DBDE8F041FEF781
:1034E000E0BF3168706B091DFEF7DBFFB06A8442F4
:1034F00000D2B46201E7E748016B491C01637047E1
:103500002DE9F04105460E460024002D07D140F27A
:103510007942AFF2B001AFF2A00001F04BFC3EB92E
:1035200040F27A42AFF2C401AFF2B40001F042FCC3
:10353000D84F386B38B140F27B42AFF2D801AFF2CE
:10354000C80001F037FCFFF7D6FFFA682B6899191D
:10355000934205D98B4208D9914206D9012404E04F
:103560008B4201D8914200D9012429601CB1881AEC
:103570000021FFF78DFFFFF712FF002807D1C74991
:103580004FF080500860BFF34F8FBFF36F8FB4E6EA
:1035900010B504460020002C12D0BE48006B38B194
:1035A00040F2CF42AFF24411AFF2341001F002FC0E
:1035B000FFF7A1FF00212046FFF76AFFFFF7EFFEAC
:1035C000002807D1B5494FF080500860BFF34F8FF6
:1035D000BFF36F8F10BD70B50546002D07D140F2C7
:1035E000FB42AFF28011AFF2701001F0E3FBA94E85
:1035F0003068854201D1002070BD01F041FA6C694C
:1036000001F058FA706B844202D0B06B844201D151
:10361000022070BDA048844205D1A86A08B10220EA
:1036200070BD032070BD9C481438844202D00CB198
:10363000012070BD042070BD10B5044601F020FAD1
:103640000CB994480468E46A01F034FA204610BDCD
:1036500010B5044601F055FA5020EFF3118180F3C4
:103660001188BFF34F8FBFF36F8F0CB9894804687F
:10367000E06A81F3118810BD2DE9F04104460D4642
:103680000026202D07D34FF4B062AFF22821AFF20D
:10369000182001F08FFB202D00D31F2501F0F0F939
:1036A0007C4F04B93C68E06CA84241D0854208D9FF
:1036B00039688C4209D03968C96AA94205D80126FF
:1036C00003E039688C4200D10126D4F82C804045B3
:1036D00000D1E562E564A069002802DBC5F12000A5
:1036E000A0616F4D08EB8801606905EB810188429C
:1036F00015D1201DFEF7EDFE012120B93A6901FA2E
:1037000008F082433A61E06A3A69814011433961C5
:1037100000EB800005EB8000211DFEF7B6FE3EB1F8
:103720005E494FF080500860BFF34F8FBFF36F8F3B
:10373000BDE8F04101F0BEB970B5564D286B0028C8
:1037400002D00120E86170BD0020E8612869B0FA6C
:1037500080F0C0F11F00524E00EB800456F82400A8
:1037600038B940F6F622AFF20431AFF2F42001F09E
:1037700021FB06EB840041684968416000F10802C2
:10378000914201D1496841604068C068286070BDBD
:1037900070B5044601F074F93E4D04B92C68201D43
:1037A000FEF797FE58B9E06A3D4A00EB800152F8F7
:1037B000211021B901218140286988432861A06A2C
:1037C00018B104F11800FEF784FE211D3248FEF7FF
:1037D0005CFE01F06FF9686928B101F051F9FFF75B
:1037E00018FD01F067F92868844213D1686990B127
:1037F000286B38B140F25762AFF29831AFF288309F
:1038000001F0D8FA25494FF080500860BFF34F8F80
:10381000BFF36F8F70BD2048A9680068884202D14D
:103820000020286070BDBDE8704085E770B50025B8
:103830000446002807D140F28162AFF2D831AFF2DE
:10384000C83001F0B7FA14496069884205D1A06A0E
:103850002839884201D000B90125284670BD70B5CD
:103860000446002807D140F2AB62AFF20841AFF244
:10387000F83001F09FFA002C35D0064D28688442BC
:1038800031D001F0FDF82046FFF7D0FF38B3201DFE
:1038900008E0000044000020B004002004ED00E037
:1038A000E0010020FEF715FEE06A01212A6981404F
:1038B00011432961F84900EB800001EB8000211DD4
:1038C000FEF7E3FDE06A2968C96A884207D3F34935
:1038D0004FF080500860BFF34F8FBFF36F8FBDE88C
:1038E000704001F0E7B870BD2DE9F04100260446B4
:1038F000002807D140F2E262AFF29841AFF288406F
:1039000001F058FA01F0FDF85020EFF3118580F333
:103910001188BFF34F8FBFF36F8F2046FFF786FFED
:1039200038B1DF4F386B40B104F11801DD48FEF7C4
:10393000ACFD85F311883046DFE4E06A3968C96A76
:10394000884200D30126201DFEF7C3FDE06A012155
:103950003A69814011433961CF4900EB800001EBA6
:103960008000211DFEF791FDE3E770B5CD4ECC4DF3
:1039700014361CE0FFF7BFFD306820B10024FFF7CC
:103980000EFDA4B901E00124F9E701F079F8F0682F
:10399000C468201DFEF79DFDA868401EA8606868E9
:1039A000401E686001F086F82046FFF741FC686819
:1039B0000028DFD170BDB84E4FF08054B74DFFF7EF
:1039C000D4FF30680128FAD92C60BFF34F8FBFF3C2
:1039D0006F8FF4E71CB5B24800242C30CDE90040CD
:1039E00023468222B0A1B248FFF7E3FB012801D1B0
:1039F00000F0B9FE01280CD0401C1CD140F28472AA
:103A0000AFF2A051AFF2905002B0BDE8104001F00B
:103A1000D1B9502080F31188BFF34F8FBFF36F8F60
:103A20009F484FF0FF31816201214161C460BDE8D0
:103A30001C4000F0E5BF1CBD502080F31188BFF38F
:103A40004F8FBFF36F8F96490020486101F00CB88B
:103A50009348C068704710B501F053F89048C068AB
:103A600010BD8F488068704710B5002802D004460A
:103A70001CB10AE08A480468FAE740F68C02AFF20B
:103A80001C61AFF20C6001F095F904F1340010BD37
:103A9000002101E0401C491C0278A52AFAD08808C0
:103AA00080B270472DE9F04707460C4690461E4607
:103AB000002F0ED03D46256005F134006060E86AB5
:103AC0002061286BE061686CA060207B032803D034
:103AD0000AE073480568EEE7FFF70DFDA86A08B134
:103AE00002202073FFF75BFCE86C60614FF0000977
:103AF000C4F81890052E01D0267303E03846FFF76E
:103B00006AFD2073B8F1000F05D0286BFFF7C0FFE6
:103B10002084BDE8F087A4F82090FAE72DE9F0476B
:103B200080460C46914600262068002821D0214678
:103B300048684068486001F10807B84201D1406810
:103B400048604868D0F80CA0606845686560BD4270
:103B500001D1696861606068C56806EBC60008EB62
:103B600080014B4601222846FFF79CFF761C5545F5
:103B7000EAD13046CDE72DE9F04706460B46174619
:103B800000242025FFF7B7FCDFF81481D8F80800DF
:103B900083423BD3DFF800916D1E05EB850009EBF6
:103BA000800104EBC40006EB80000122FFF7B6FFA2
:103BB0000444002DF0D104EBC40006EB8000022287
:103BC000D8F83410FFF7AAFF044404EBC40006EB56
:103BD00080000222D8F83810FFF7A0FF04443149D2
:103BE00004EBC40006EB800004221431FFF796FFBB
:103BF00004442C4904EBC40006EB80000322283166
:103C0000FFF78CFF04440FB100203860FFF7C7FBBB
:103C100020467EE770B504460D46002C07D140F6DD
:103C20000632AFF2C071AFF2B07001F0C3F81C48B9
:103C3000016820461831FEF734FC2846BDE8704084
:103C4000012125E42DE9F04105460E461746002DD9
:103C500007D140F61732AFF2F471AFF2E47001F021
:103C6000A9F80F4C206B38B940F61B32AFF60C01A7
:103C7000AFF2FC7001F09EF8216846F000408861C8
:103C8000216828461831FEF700FC3846BDE8F041AF
:103C90000121FFF7FDBB0000E001002004ED00E082
:103CA000440000208804002049444C4500000000E6
:103CB000B739000870B506460D461446002E07D1E8
:103CC00040F63132AFF66401AFF6540001F072F8FD
:103CD000FE48016830461831FEF7D7FB0CB14FF0B3
:103CE000FF3521462846BDE87040FFF7D1BB2DE9DE
:103CF000F041C068C468002C07D140F66132AFF6CD
:103D00009C01AFF68C0001F055F804F1180007464D
:103D1000FEF7DFFBED4D2A6B01265AB13946EC4820
:103D2000FEF7B3FBE06A2968C96A884214D901200A
:103D3000EE612CE4201DFEF7CCFBE06A2A6906FA4E
:103D400000F111432961E34900EB800001EB8000A1
:103D5000211DFEF79AFBE5E7002018E470B5064642
:103D60000C46DA4D286B002807D140F69932AFF6A1
:103D70000C11AFF6FC0001F01DF844F0004030607B
:103D8000F4683CB940F6A132AFF62811AFF618102E
:103D900001F010F83046FEF79CFB201DFEF799FB62
:103DA000E06A01262A6906FA00F111432961C9492E
:103DB00000EB800001EB8000211DFEF766FBE06A4E
:103DC0002968C96A884202D90120EE6170BD0020CD
:103DD00070BD10B50446002C07D140F6C132AFF6D5
:103DE0007C11AFF66C1000F0E5FFB848016A216065
:103DF000C068606010BD70B504460D46002C07D148
:103E000040F6CB32AFF6A411AFF6941000F0D2FF1B
:103E10003DB940F6CC32AFF6B411AFF6A41000F0C5
:103E2000C9FF00F02DFEA94AD06829684B1C08D0B4
:103E30002368126A934206D06268824203D8012442
:103E40000DE000240BE06268801A884206D2081A4E
:103E500028602046FFF7BDFF002400E0012400F0A9
:103E600029FE204670BD99490120C861704700288D
:103E700001D0806C704700207047002800D081641A
:103E8000704792480068704790484169002903D004
:103E9000006B18B100207047012070470220704766
:103EA00070B50446002839D0884DE06A2968C96A8F
:103EB000884233D2A069002804DB2868C06AC0F1B8
:103EC0002000A061E06A834E00EB8000616906EB90
:103ED000800081421FD1201DFEF7FBFA012150B95D
:103EE000E06A00EB800256F8222022B92A6901FA22
:103EF00000F082432A612868C06AE0622A69814032
:103F00001143296100EB800006EB8000211DBDE814
:103F10007040FEF7BABA2868C06AE06270BD70B53A
:103F200004460026002840D0684D2868844207D007
:103F300040F6C762AFF6D421AFF6C42000F03AFFD6
:103F4000206D38B940F6C962AFF6E821AFF6D82047
:103F500000F030FF206D401E2065E26CE16A914266
:103F600023D010BB201DFEF7B4FA5A4A012150B9E4
:103F7000E06A00EB800352F8233023B92B6901FA81
:103F800000F083432B61E06CE062C0F12000A0618F
:103F9000E06A2B6981401943296100EB800002EB44
:103FA0008000211DFEF771FA0126304670BD10B564
:103FB0000446204600F0B8FF204600F0D9FF20213B
:103FC00001E02154401C0F28FBD300212154204440
:103FD00010BD7FB50646002434703C4881680391CB
:103FE000806800EBC000800000F021FE054628003C
:103FF00042D000220399FFF7BEFD0390029429E00E
:10400000029800EBC00005EB8000017B01292BD05A
:1040100002292BD003292BD004292BD0002441685E
:104020003046FFF7C4FF0646029800EBC00005EBE0
:1040300080008168028CCDE900210369224626A117
:10404000304600F0C3FE304600F092FF064402986E
:10405000401C0290DDE902018842D1D304B0284619
:10406000BDE8704000F04ABE5224D8E74224D6E7AB
:104070005324D4E74424D2E77FBD144908688069FB
:104080000A680968D26AC2F120028A6170470F4942
:104090000868002803D00868026D521C0265086891
:1040A000704770B506460C4600F0EAFC074D2868DC
:1040B000406DF8B92A68012082F85800D4B1012176
:1040C0002046FFF7E5F94FF080500DE04400002056
:1040D00088040020E00100200925630925750925D1
:1040E000750925750D0A0000D2490860BFF34F8F8E
:1040F000BFF36F8F00F0DEFC00F0C2FC2868446D57
:10410000002034B116B12968486502E02A68611EB2
:104110005165296881F8580000F0CCFC204670BD3C
:104120002DE9F04781460F461646984600F0A8FC58
:10413000C14D286890F85800022817D02C68606D8F
:1041400020EA090060652968012081F85800B8F16B
:10415000000F0BD001214046FFF79AF9B5494FF007
:1041600080500860BFF34F8FBFF36F8F00F0A2FC49
:1041700000F086FC16B12868406D3060286890F821
:10418000580001280CD02868416DB94341650124CD
:104190002968002081F8580000F08CFC2046B8E423
:1041A0000024F5E72DE9F04104460D4690461F46F0
:1041B0000126002C07D141F2FD02AFF65851AFF6AF
:1041C000485000F0F7FD00F05BFC0FB1606D386007
:1041D00094F85800022184F85810B8F1050F13D252
:1041E000DFE808F01203070B0D00616D29436165DC
:1041F0000AE0616D491C616506E0656504E002281E
:1042000001D0656500E00026012828D1201DFEF7B9
:1042100060F9894DE06A01212A69814011432961D1
:10422000864900EB800001EB8000211DFEF72DF98F
:10423000A06A38B141F23512AFF6D851AFF6C85086
:1042400000F0B8FDE06A2968C96A884207D979494F
:104250004FF080500860BFF34F8FBFF36F8F00F0B7
:1042600029FC304665E52DE9F0470446DDF820805D
:104270000D4691469A460127002C07D141F268125B
:10428000AFF62061AFF6106000F094FD00F039FC4D
:104290005020EFF3118680F31188BFF34F8FBFF3E7
:1042A0006F8FBAF1000F02D0606DCAF8000094F869
:1042B0005800022184F85810B9F1050F13D2DFE835
:1042C00009F01203070B0D00616D294361650AE0D7
:1042D000616D491C616506E0656504E0022801D056
:1042E000656500E00027012832D1A06A38B141F2AB
:1042F000AF12AFF69061AFF6806000F05BFD4E4DFF
:10430000286B4FF0010978B104F118014C48FEF711
:10431000BCF8E06A2968C96A884219D9B8F1000F67
:1043200014D0C8F8009013E0201DFEF7D2F8E06A20
:104330002A6909FA00F11143296100EB80013F4825
:1043400000EB8100211DFEF7A0F8E2E7C5F81C9004
:1043500086F3118838460DE42DE9F041044688467D
:10436000002C07D141F2E312AFF60871AFF6F86006
:1043700000F020FD00F0C5FB5020EFF3118780F323
:104380001188BFF34F8FBFF36F8F94F8580002214D
:1043900084F85810616D491C6165012830D1A06A0C
:1043A00038B141F20922AFF64471AFF6347000F033
:1043B00001FD214D286B012678B104F11801204838
:1043C000FEF763F8E06A2968C96A884218D9B8F12B
:1043D000000F14D0C8F8006012E0201DFEF779F835
:1043E000E06A2A6906FA00F111432961134900EBDA
:1043F000800001EB8000211DFEF747F8E2E7EE6147
:1044000087F3118895E410B500280BD0044600F01E
:1044100037FB94F85800022807D0002400F04AFB2C
:10442000204610BD04480468F1E7002084F85800D5
:104430000124F3E704ED00E044000020E001002047
:104440008804002070B5002441600061F74D91425E
:104450000AD8D11A8269914201D301240EE0011DCC
:104460002869FEF71EF809E09A4203D2994201D367
:10447000012403E0011DE868FEF713F8204670BD33
:104480002DE9FF470546DDF830A00E4690469946D7
:104490000027002D05D14FF4D372E5A1EAA000F06A
:1044A00089FCE24C2068F8B10096CDF804800295B2
:1044B000062E13DAFFF7E8FC022807D000231A467D
:1044C00069462068FEF748F907460DE0002352468A
:1044D00069462068FEF740F9074605E000234A4692
:1044E0006946FEF75CFB074604B03846BDE8F08736
:1044F000F8B5CE4E25E0C0680568C468201DFDF7FC
:10450000E8FF616A20468847E069012819D1A0695F
:104510002844A84206D960602461211DF068FDF797
:10452000C0FF0EE000200346014600902A462046C8
:10453000FFF7A6FF28B940F29232BDA1C2A000F059
:1045400039FCF06801680029D5D1F0683169F16063
:104550003061F8BD70B50546FFF77AFA0446B34EF0
:10456000B068844204D2FFF7C3FF0120286001E055
:1045700000202860B460204670BD70B586B0AB4E98
:1045800053E00298002803DADDE9032005999047FB
:104590000298002849DB049C606910B1201DFDF7DA
:1045A00098FF01A8FFF7D6FF054602980A283CD2DB
:1045B000DFE800F00505053B273805053B27039894
:1045C000A169034601442A462046FFF73BFF002825
:1045D0002BD0616A20468847E069012825D1002058
:1045E00000900398A1690023421819462046FFF75E
:1045F00047FFD0B940F221328DA193A000F0DAFB41
:1046000013E00398A06128B94FF44E7288A18EA0E0
:1046100000F0D0FBA0692B4641192A462046FFF73F
:1046200011FF02E0204600F069FB00231A4602A9B0
:104630003068FEF7B0F90028A3D106B070BDF8B518
:1046400005460E467948C068C068C468201DFDF75D
:1046500040FFE069012816D1A0692B464119324676
:104660002046FFF7EFFE70B10020034601460090A0
:104670002A462046FFF704FF28B94FF402726CA1C6
:1046800071A000F097FB616A01B02046BDE8F040E0
:104690000847F8B506460D46FEF72DFF6846FFF7BA
:1046A00059FF0446009810B1FEF779FEF8BD45B9F0
:1046B000A64206D8FEF773FE21463046FFF7BFFF3D
:1046C000F8BD5A481DB10169096891B10025311B37
:1046D0002A460068FEF75AFCFEF761FE0028EFD17B
:1046E0005D494FF080500860BFF34F8FBFF36F8F6D
:1046F000F8BD0125EBE74D49CA681168002904D0CF
:104700000021016019B1002070470121F9E7D0684C
:104710000068704708B56846FFF7EDFF0099FFF79E
:10472000B8FFFFF72AFFF6E710B500F0A9F93F4CF4
:104730002068A0B94948FDF79AFE48481430FDF7B3
:1047400096FE4648E06014302061002210210520CA
:10475000FDF726FF206010B141A1FEF7F6FBBDE892
:10476000104000F0A7B91CB50024FFF7DDFF2F486B
:10477000006860B12D481F21001DCDE90010002305
:104780004FF4827238A13A48FEF713FD04462CB963
:1047900040F2331226A12CA000F00CFB20461CBDD9
:1047A0002DE9F0470646DDE908940D461746984680
:1047B000002D05D14FF4C6721DA123A000F0FAFA16
:1047C000002C0DD0FFF7B0FF2660A561E761C4F8AB
:1047D0002080C4F82490201DBDE8F047FDF752BEAC
:1047E00084E62DE9FC4706460A9D0F469046994609
:1047F0002C2000F01CFA04463CB1CDE900544B4695
:10480000424639463046FFF7CBFF2046BDE8FC87DD
:1048100010B5064C6068002805D14FF4E87204A179
:1048200009A000F0C7FA606810BD000080000020F9
:104830002E2E5C4672656552544F535C74696D65EB
:1048400072732E63000000004572726F723A257316
:104850002C25640D0A00000004ED00E0C4040020D3
:10486000546D725100000000546D72205376630045
:104870001547000810B50446002807D140F2D912A8
:10488000AFF25401AFF2400000F094FAA069CBE718
:1048900010B50446002807D140F2E312AFF27001D0
:1048A000AFF25C0000F086FA6068BDE710B5044620
:1048B000002807D140F2ED12AFF28C01AFF2780080
:1048C00000F078FA2068AFE710B50446002807D159
:1048D00040F2DA32AFF2A801AFF2940000F06AFAC7
:1048E00000F0CEF8606908B1012400E0002400F077
:1048F000E1F8204698E710B50446002807D140F2B9
:10490000EF32AFF2D401AFF2C00000F053FA00F082
:10491000B7F8246A00F0CEF8204685E770B50D465A
:104920000446002807D140F2FF32AFF2FC01AFF29B
:10493000E80000F03FFA00F0A3F82562BDE87040FF
:1049400000F0B8B87FB51D466FF0010400940190E7
:1049500002910392144800232A4669460068FEF734
:104960001EF904B070BD2DE9FF4104460D46164600
:1049700098460D4F3A68002A07D140F22B42AFF219
:104980005011AFF23C1000F015FA4FF0FF320092D8
:104990000194029503960023424669463868FDF764
:1049A000DBFE04B0BDE8F08180000020674840686D
:1049B000401C04D0F42266A170A000F0FBF9502046
:1049C00080F31188BFF34F8FBFF36F8FFEE720385E
:1049D0004FF08073C36121F0010181616B49416136
:1049E00040F8202970476A484FF47A710068B0FB9C
:1049F000F1F14FF0E020491E41610721016170474C
:104A00001CB5644908780190FF2008700878009070
:104A10009DF800004D4A00F0500010700720906093
:104A200006E09068401E90609DF8000040000090F5
:104A30009DF800000006F4D4107A000200F4E06053
:104A40009060019808705448016841F47001016059
:104A5000016841F070410160FFF7C5FF0020506020
:104A6000FBF7B2FB00201CBD38484068B0F57A7FE8
:104A700005D04FF4B57236A140A000F09BB9704745
:104A8000502080F31188BFF34F8FBFF36F8F2F49F2
:104A90004868401C486001280BD13F481C3800681A
:104AA00010F0FF0F05D04FF4BD7229A133A000F024
:104AB00081B9704710B5254C6068002805D140F2D7
:104AC000811223A12DA000F075F96068401E60607E
:104AD000002801D180F3118810BD10B5502080F35B
:104AE0001188BFF34F8FBFF36F8FFEF7F8FB20B134
:104AF00029494FF080501C390860002080F311884C
:104B000010BD10B5FBF796FB104C10280CD300F12C
:104B1000E02090F8F0032178884205D24FF42A7201
:104B20000BA116A000F046F91B4814380068A168D4
:104B300000F4E060884207D9BDE810404FF42E72BF
:104B400003A10EA000F036B910BD000094000020B3
:104B50002E2E5C4672656552544F535C706F7274B2
:104B600061626C655C525644535C41524D5F434DEB
:104B7000335C706F72742E63000000004572726FB8
:104B8000723A25732C25640D0A000000AD49000817
:104B90000000002000E400E020ED00E030B57449A2
:104BA00000E011460A688242FBD34B685C188442DD
:104BB00003D140681844486008460D6844682318CB
:104BC000AB420DD16A4B103B1B689A4206D052682B
:104BD000224442600A681268026002E0036000E05A
:104BE0000260814200D0086030BD4FF4205161481E
:104BF000420706D0C01D20F007005E49411AC1F5EA
:104C000020515B4A1060002353600144083921F0B1
:104C10000701103A11604B600B600B1A4360016092
:104C20004068906050604FF00040D06070472DE9C0
:104C3000F04105460026FEF75EFC4D4F103F3868F8
:104C400008B9FFF7D2FFF86805424AD175B10835B7
:104C500068070BD005F00700C0F10800054468079D
:104C600004D0BF2244A14EA000F0A4F8002D38D0FB
:104C70007868854235D83E490846046801E02146F7
:104C800004466068A84202D220680028F7D138683C
:104C9000844226D00E680836206808606068401B91
:104CA000102811D904EB05085FEA487004D0EC2203
:104CB00031A13BA000F07EF86068401BC8F80400FA
:104CC00065604046FFF76AFF61687868401A78605F
:104CD000BA68904200D2B860F86801436160002071
:104CE0002060FEF75CFB700705D04FF4967222A19E
:104CF0002BA000F05FF83046BDE8F08170B50028C9
:104D00002BD0083804461A4D6068103DE968084207
:104D100005D14FF4A07218A121A000F04BF8206833
:104D200028B140F2411214A11DA000F043F86068C0
:104D3000E968084211D02268002A0ED188436060D9
:104D4000FEF7D9FB60686968084468602046FFF791
:104D500025FFBDE87040FEF722BB70BD0448103847
:104D600040687047024810388068704770470000FC
:104D7000B0000020EC0400202E2E5C4672656552C7
:104D8000544F535C706F727461626C655C4D656DFD
:104D90004D616E675C686561705F342E6300000072
:104DA0004572726F723A25732C25640D0A0000005B
:104DB000704700000FB4044910B503AA029800F030
:104DC000D5F910BC5DF814FB2C0000200FB41CB505
:104DD000074B06AA7B4469460090059800F097F9B6
:104DE0000020694600F0A6F91CBC5DF814FB000029
:104DF0005D0300002DE9F0410E46044600202062CC
:104E00002046E168884730B3252805D0D4E9012140
:104E10009047206A401CF2E7E16820460027884757
:104E2000050018D0A5F14100192802D820354FF40B
:104E300000673246294620462760FBF791F940B1CA
:104E4000012804D0F61D26F007060836D8E7361DDF
:104E5000D6E72846DAE7206ABDE8F08170B50C464F
:104E60000546012A05D02878800600D5EA69002386
:104E700002E0012305E05B1C934202D2E05C0028C3
:104E8000F9D1A869E618C01AA861286A18442862EE
:104E90002846AFF3008004E0D5E9012114F8010BA6
:104EA0009047B442F8D32846AFF3008070BD0000AD
:104EB0002DE9F0410646002410687529314616A5F3
:104EC00010D0AFF30080002802DA404213A507E0BB
:104ED00031688A0701D512A502E0490704D511A55A
:104EE000012401E0AFF3008000210A2206F124072B
:104EF00009E0B0FBF2FCB0FBF2F302FB1C00303027
:104F000078541846491C0028F3D123462A463046D7
:104F1000BDE8F04100F09CB8000000002D0000004A
:104F20002B0000002000000040EA0103024630B5DB
:104F30009B0710D14FF0013400E008C208C91D1BC7
:104F40009D4315EAC41FF8D013F0FF0102F8011BBE
:104F50000DD01B0AF8E711F8013B002B02F8013BCA
:104F600005D011F8013B002B02F8013BF3D130BD15
:104F700010B5431C02E010F8011B71B18107FAD192
:104F80004FF0013202C88C1A8C4314EAC211F9D0D6
:104F9000C01A0A0603D0C01E10BDC01A10BD0A04F4
:104FA00001D0801E10BD0902FCD0401E10BD032A96
:104FB00040F2308010F0030C00F0158011F8013B36
:104FC000BCF1020F624498BF11F801CB00F8013B1D
:104FD00038BF11F8013BA2F1040298BF00F801CBE1
:104FE00038BF00F8013B11F0030300F0D180083A0C
:104FF000C0F0088051F8043B083A51F804CBA0E80F
:105000000810F5E7121D5CBF51F8043B40F8043B63
:10501000AFF30080D20724BF11F8013B11F801CB98
:1050200048BF11F8012B24BF00F8013B00F801CB69
:1050300048BF00F8012B704702F0FF0343EA032248
:1050400042EA024200F0D8B8704770477047704794
:105050002DE9F0470D4699469246044600F1240892
:105060000168880604D5E06921F01001216000E0A4
:105070000120A84201DD471B00E00027A1697A1941
:1050800002EB0900081AA0612078C00602D420466D
:10509000AFF30080002608E0D4E901211AF80600E9
:1050A0009047206A401C761C20624E45F4DB207835
:1050B000C0060AD52046AFF3008006E0D4E90121FE
:1050C00030209047206A401C2062381EA7F101075B
:1050D000F4DC07E0D4E9012118F805009047206AC4
:1050E000401C2062281EA5F10105F3DC2046AFF329
:1050F00000802078000602D50220BDE8F08701205C
:10510000FBE7000001694A1C02610878704700B59E
:105110008FB0CDE901310021059105497944CDE9F0
:10512000031011466846FFF765FE0FB000BD000092
:10513000E5FFFFFF0A6802F8010B0A60704710B52F
:10514000436913B1AFF3008001E0FFF787FE012050
:1051500010BD127800F124010A7000224A70012269
:10516000EDE711684FF0FF32E9E70000074B70B53B
:105170000D467B44FFF7CBFF0446284600F05CF861
:1051800010B14FF0FF3070BD204670BD99BBFFFFDE
:1051900010B5203AC0F00B80B1E81850203AA0E8D2
:1051A0001850B1E81850A0E81850BFF4F5AF5FEA06
:1051B000027C24BFB1E81850A0E8185044BF18C9B9
:1051C00018C0BDE810405FEA827C24BF51F8043B60
:1051D00040F8043B08BF7047D20728BF31F8023BB4
:1051E00048BF11F8012B28BF20F8023B48BF00F848
:1051F000012B70474FF000020429C0F0128010F01C
:10520000030C00F01F80CCF1040CBCF1020F18BF9E
:1052100000F8012BA8BF20F8022BA1EB0C0100F035
:1052200011B85FEAC17C24BF00F8012B00F8012B04
:1052300048BF00F8012B7047007B00F080007047EA
:105240004FF0000200B5134694469646203922BF1F
:10525000A0E80C50A0E80C50B1F12001BFF4F7AF6A
:10526000090728BFA0E80C5048BF0CC05DF804EB4C
:10527000890028BF40F8042B08BF704748BF20F8BA
:10528000022B11F0804F18BF00F8012B70477546B4
:1052900000F02CF8AE4605006946534620F00700A2
:1052A000854618B020B5FBF7CBFDBDE820404FF098
:1052B00000064FF000074FF000084FF0000B21F000
:1052C0000701AC46ACE8C009ACE8C009ACE8C009CD
:1052D000ACE8C0098D46704710B50446AFF30080B6
:1052E0002046BDE81040FAF756BF0000004870475E
:1052F000EC2C00202DE9C04130B4DFF8A0C23CEA1C
:10530000111418BF3CEA131400F0EC8081EA030585
:105310001CEA111444EAD57418BF1CEA131500F0F6
:10532000C780A4EB05044FF0004545EAC12145EADA
:10533000C32341EA505143EA525304F17F74994226
:1053400004F500344FEAC0204FEAC22208BF904261
:1053500000F09C804FEA13650FF24016765D4FEA2D
:10536000134506FB05F7C7F1807706FB07F74FEA01
:10537000D737A7FB03687642C8F58038A7FB06CE6F
:1053800038BFA8F1010807FB08E64FF0000EA6FBA6
:10539000028CE6FB03CEDCF1000CCEF1004E38BFF0
:1053A000AEF1010EA6FB0C584FF000074FF00005C0
:1053B000E6FB0E87A1FB08C6A0FB07CE16EB0E0688
:1053C00045F10005E1FB076515F1E04E7EBFA4F550
:1053D00080345FEA46066D4116F1800745F100050D
:1053E0004FEA17274FEA066647EA0567A6F1DE4649
:1053F000B6F1805F4FEA15251FD9384624F0010C1D
:1054000005EBC471BCF1FE6F01EB0C1102D8F0BCCE
:10541000BDE8008124425CBF01F5801E9EEAC47F86
:1054200002D4F0BCBDE80081244238D4F0BCA1F124
:10543000C041BDE8004100F049B94FEAD22242EA3A
:1054400043524FEAD323A7FB02864FEAD02040EA1B
:10545000415007FB03661EEA0E0F4FEAD12105FB00
:10546000026658BFA6EB0056B6EB00564FEA520E46
:105470004EEAC37E18EB0E0E56EB530EBDD518EB5D
:1054800002085E417F1C55F10005B6E74FF4801518
:105490004FF000074FF000064FF00008ADE7F0BCFA
:1054A0004FF0000001F1C04101F00041BDE8008172
:1054B00011EA0C1F0CEA131500D00CE013EA0C1FC4
:1054C00000F025804FF00000F0BC81EA030101F0FC
:1054D0000041BDE80081F0BCBDE8004181EA030164
:1054E00000F0F4B8F0BCBDE8004170B500F0A0F8E1
:1054F000097EFC3E00F007B881EA03014FF000008E
:1055000001F00041704781EA030100F0DFB8F0BC10
:10551000BDE800414FF0000021497047FFFDFBF955
:10552000F7F5F4F2F0EEEDEBE9E8E6E4E3E1E0DED6
:10553000DDDBDAD8D7D5D4D3D1D0CFCDCCCBCAC848
:10554000C7C6C5C4C2C1C0BFBEBDBCBBBAB9B8B76F
:10555000B6B5B4B3B2B1B0AFAEADACABAAA9A8A862
:10556000A7A6A5A4A3A3A2A1A09F9F9E9D9C9C9B30
:105570009A999998979796959594939392919190DB
:105580008F8F8E8E8D8C8C8B8B8A8989888887876C
:105590008685858484838382828181800000FF07E1
:1055A0000000F87F4FEA41034FEA5353A3F58063AD
:1055B000D3F11E03C8BFD3F1210C0CDD4FF0004224
:1055C00042EAC12242EA505232FA03FC8CEAE17C00
:1055D000ACEBE1707047102BC4BF0020704703F59F
:1055E000787CBCF1FF3F04D06FF0004282EA2100DA
:1055F000704770B500F01CF8499224800020704775
:10560000F2E710F0004248BF4042B0FA80F310FACF
:1056100003F10AD0C3F11D0303F580634FEA415043
:1056200002EB035202EBD12170474FF000007047AC
:105630000EF1020E2EF0030E5EF8046B364205D416
:10564000012A43EB030515F5001F12D8012841EB91
:10565000010C1CF5001F0CD80ED14FEAD17C15F5BA
:10566000001F0CEB4C0C0CF1020C08BF4CEBD37C74
:1056700004E04FF0080C01E04FEAD37C0CEB4C0542
:1056800026FA05F606F00706B6F1040C06D20EEB74
:10569000860CBDE870404CF0010C6047DFE80CF070
:1056A000090B02024FF000414FF00000A1F500216C
:1056B00070BD19461046012851EB010418BFD4F5FE
:1056C000001484BF002001F0004170BD0808A0F55F
:1056D00000114FEA31017047F85600080000002021
:1056E000B800000028010008B0570008B8000020EA
:1056F000983200004401000800A24A0400000000A3
:105700000000000001020304060708090000000071
:105710000000000000000000000000000000000089
:105720000000000000000000020406080000000065
:105730000102030401020304060708090000000037
:105740000000000000000000000000000000000059
:105750000000000000000000000000000000000049
:105760000000000000000000000000000000000039
:105770000000000000000000000000000000000029
:105780000000000000000000000000000000000019
:10579000AAAAAAAA00000000000000000000000061
:1057A00000000000000000000000000000000000F9
:04000005080000ED02
:00000001FF
